{
  "address": "0xbB93aC6a77bd85aE1A0F756F543c0F42b1323544",
  "abi": [
    {
      "anonymous": false,
      "inputs": [
        {
          "indexed": true,
          "internalType": "bytes32",
          "name": "node",
          "type": "bytes32"
        },
        {
          "indexed": true,
          "internalType": "uint256",
          "name": "contentType",
          "type": "uint256"
        }
      ],
      "name": "ABIChanged",
      "type": "event"
    },
    {
      "anonymous": false,
      "inputs": [
        {
          "indexed": true,
          "internalType": "bytes32",
          "name": "node",
          "type": "bytes32"
        },
        {
          "indexed": false,
          "internalType": "address",
          "name": "a",
          "type": "address"
        }
      ],
      "name": "AddrChanged",
      "type": "event"
    },
    {
      "anonymous": false,
      "inputs": [
        {
          "indexed": true,
          "internalType": "bytes32",
          "name": "node",
          "type": "bytes32"
        },
        {
          "indexed": false,
          "internalType": "uint256",
          "name": "coinType",
          "type": "uint256"
        },
        {
          "indexed": false,
          "internalType": "bytes",
          "name": "newAddress",
          "type": "bytes"
        }
      ],
      "name": "AddressChanged",
      "type": "event"
    },
    {
      "anonymous": false,
      "inputs": [
        {
          "indexed": true,
          "internalType": "bytes32",
          "name": "node",
          "type": "bytes32"
        },
        {
          "indexed": false,
          "internalType": "bytes",
          "name": "hash",
          "type": "bytes"
        }
      ],
      "name": "ContenthashChanged",
      "type": "event"
    },
    {
      "anonymous": false,
      "inputs": [
        {
          "indexed": true,
          "internalType": "bytes32",
          "name": "node",
          "type": "bytes32"
        },
        {
          "indexed": false,
          "internalType": "bytes",
          "name": "name",
          "type": "bytes"
        },
        {
          "indexed": false,
          "internalType": "uint16",
          "name": "resource",
          "type": "uint16"
        },
        {
          "indexed": false,
          "internalType": "bytes",
          "name": "record",
          "type": "bytes"
        }
      ],
      "name": "DNSRecordChanged",
      "type": "event"
    },
    {
      "anonymous": false,
      "inputs": [
        {
          "indexed": true,
          "internalType": "bytes32",
          "name": "node",
          "type": "bytes32"
        },
        {
          "indexed": false,
          "internalType": "bytes",
          "name": "name",
          "type": "bytes"
        },
        {
          "indexed": false,
          "internalType": "uint16",
          "name": "resource",
          "type": "uint16"
        }
      ],
      "name": "DNSRecordDeleted",
      "type": "event"
    },
    {
      "anonymous": false,
      "inputs": [
        {
          "indexed": true,
          "internalType": "bytes32",
          "name": "node",
          "type": "bytes32"
        }
      ],
      "name": "DNSZoneCleared",
      "type": "event"
    },
    {
      "anonymous": false,
      "inputs": [
        {
          "indexed": true,
          "internalType": "bytes32",
          "name": "node",
          "type": "bytes32"
        },
        {
          "indexed": false,
          "internalType": "bytes",
          "name": "lastzonehash",
          "type": "bytes"
        },
        {
          "indexed": false,
          "internalType": "bytes",
          "name": "zonehash",
          "type": "bytes"
        }
      ],
      "name": "DNSZonehashChanged",
      "type": "event"
    },
    {
      "anonymous": false,
      "inputs": [
        {
          "indexed": true,
          "internalType": "bytes32",
          "name": "node",
          "type": "bytes32"
        },
        {
          "indexed": true,
          "internalType": "bytes4",
          "name": "interfaceID",
          "type": "bytes4"
        },
        {
          "indexed": false,
          "internalType": "address",
          "name": "implementer",
          "type": "address"
        }
      ],
      "name": "InterfaceChanged",
      "type": "event"
    },
    {
      "anonymous": false,
      "inputs": [
        {
          "indexed": true,
          "internalType": "bytes32",
          "name": "node",
          "type": "bytes32"
        },
        {
          "indexed": false,
          "internalType": "string",
          "name": "name",
          "type": "string"
        }
      ],
      "name": "NameChanged",
      "type": "event"
    },
    {
      "anonymous": false,
      "inputs": [
        {
          "indexed": true,
          "internalType": "address",
          "name": "previousOwner",
          "type": "address"
        },
        {
          "indexed": true,
          "internalType": "address",
          "name": "newOwner",
          "type": "address"
        }
      ],
      "name": "OwnershipTransferred",
      "type": "event"
    },
    {
      "anonymous": false,
      "inputs": [
        {
          "indexed": true,
          "internalType": "bytes32",
          "name": "node",
          "type": "bytes32"
        },
        {
          "indexed": false,
          "internalType": "bytes32",
          "name": "x",
          "type": "bytes32"
        },
        {
          "indexed": false,
          "internalType": "bytes32",
          "name": "y",
          "type": "bytes32"
        }
      ],
      "name": "PubkeyChanged",
      "type": "event"
    },
    {
      "anonymous": false,
      "inputs": [
        {
          "indexed": true,
          "internalType": "bytes32",
          "name": "node",
          "type": "bytes32"
        },
        {
          "indexed": true,
          "internalType": "string",
          "name": "indexedKey",
          "type": "string"
        },
        {
          "indexed": false,
          "internalType": "string",
          "name": "key",
          "type": "string"
        }
      ],
      "name": "TextChanged",
      "type": "event"
    },
    {
      "inputs": [
        {
          "internalType": "bytes32",
          "name": "node",
          "type": "bytes32"
        },
        {
          "internalType": "uint256",
          "name": "contentTypes",
          "type": "uint256"
        }
      ],
      "name": "ABI",
      "outputs": [
        {
          "internalType": "uint256",
          "name": "",
          "type": "uint256"
        },
        {
          "internalType": "bytes",
          "name": "",
          "type": "bytes"
        }
      ],
      "stateMutability": "view",
      "type": "function"
    },
    {
      "inputs": [
        {
          "internalType": "bytes32",
          "name": "node",
          "type": "bytes32"
        }
      ],
      "name": "addr",
      "outputs": [
        {
          "internalType": "address payable",
          "name": "",
          "type": "address"
        }
      ],
      "stateMutability": "view",
      "type": "function"
    },
    {
      "inputs": [
        {
          "internalType": "bytes32",
          "name": "node",
          "type": "bytes32"
        },
        {
          "internalType": "uint256",
          "name": "coinType",
          "type": "uint256"
        }
      ],
      "name": "addr",
      "outputs": [
        {
          "internalType": "bytes",
          "name": "",
          "type": "bytes"
        }
      ],
      "stateMutability": "view",
      "type": "function"
    },
    {
      "inputs": [
        {
          "internalType": "bytes32",
          "name": "node",
          "type": "bytes32"
        }
      ],
      "name": "clearDNSZone",
      "outputs": [],
      "stateMutability": "nonpayable",
      "type": "function"
    },
    {
      "inputs": [
        {
          "internalType": "bytes32",
          "name": "node",
          "type": "bytes32"
        }
      ],
      "name": "contenthash",
      "outputs": [
        {
          "internalType": "bytes",
          "name": "",
          "type": "bytes"
        }
      ],
      "stateMutability": "view",
      "type": "function"
    },
    {
      "inputs": [
        {
          "internalType": "bytes32",
          "name": "node",
          "type": "bytes32"
        },
        {
          "internalType": "bytes32",
          "name": "name",
          "type": "bytes32"
        },
        {
          "internalType": "uint16",
          "name": "resource",
          "type": "uint16"
        }
      ],
      "name": "dnsRecord",
      "outputs": [
        {
          "internalType": "bytes",
          "name": "",
          "type": "bytes"
        }
      ],
      "stateMutability": "view",
      "type": "function"
    },
    {
      "inputs": [
        {
          "internalType": "bytes32",
          "name": "node",
          "type": "bytes32"
        },
        {
          "internalType": "bytes32",
          "name": "name",
          "type": "bytes32"
        }
      ],
      "name": "hasDNSRecords",
      "outputs": [
        {
          "internalType": "bool",
          "name": "",
          "type": "bool"
        }
      ],
      "stateMutability": "view",
      "type": "function"
    },
    {
      "inputs": [
        {
          "internalType": "bytes32",
          "name": "node",
          "type": "bytes32"
        },
        {
          "internalType": "bytes4",
          "name": "interfaceID",
          "type": "bytes4"
        }
      ],
      "name": "interfaceImplementer",
      "outputs": [
        {
          "internalType": "address",
          "name": "",
          "type": "address"
        }
      ],
      "stateMutability": "view",
      "type": "function"
    },
    {
      "inputs": [
        {
          "internalType": "bytes32",
          "name": "node",
          "type": "bytes32"
        }
      ],
      "name": "name",
      "outputs": [
        {
          "internalType": "string",
          "name": "",
          "type": "string"
        }
      ],
      "stateMutability": "view",
      "type": "function"
    },
    {
      "inputs": [],
      "name": "owner",
      "outputs": [
        {
          "internalType": "address",
          "name": "",
          "type": "address"
        }
      ],
      "stateMutability": "view",
      "type": "function"
    },
    {
      "inputs": [
        {
          "internalType": "bytes32",
          "name": "node",
          "type": "bytes32"
        }
      ],
      "name": "pubkey",
      "outputs": [
        {
          "internalType": "bytes32",
          "name": "x",
          "type": "bytes32"
        },
        {
          "internalType": "bytes32",
          "name": "y",
          "type": "bytes32"
        }
      ],
      "stateMutability": "view",
      "type": "function"
    },
    {
      "inputs": [],
      "name": "renounceOwnership",
      "outputs": [],
      "stateMutability": "nonpayable",
      "type": "function"
    },
    {
      "inputs": [
        {
          "internalType": "bytes32",
          "name": "node",
          "type": "bytes32"
        },
        {
          "internalType": "uint256",
          "name": "contentType",
          "type": "uint256"
        },
        {
          "internalType": "bytes",
          "name": "data",
          "type": "bytes"
        }
      ],
      "name": "setABI",
      "outputs": [],
      "stateMutability": "nonpayable",
      "type": "function"
    },
    {
      "inputs": [
        {
          "internalType": "bytes32",
          "name": "node",
          "type": "bytes32"
        },
        {
          "internalType": "uint256",
          "name": "coinType",
          "type": "uint256"
        },
        {
          "internalType": "bytes",
          "name": "a",
          "type": "bytes"
        }
      ],
      "name": "setAddr",
      "outputs": [],
      "stateMutability": "nonpayable",
      "type": "function"
    },
    {
      "inputs": [
        {
          "internalType": "bytes32",
          "name": "node",
          "type": "bytes32"
        },
        {
          "internalType": "address",
          "name": "a",
          "type": "address"
        }
      ],
      "name": "setAddr",
      "outputs": [],
      "stateMutability": "nonpayable",
      "type": "function"
    },
    {
      "inputs": [
        {
          "internalType": "bytes32",
          "name": "node",
          "type": "bytes32"
        },
        {
          "internalType": "bytes",
          "name": "hash",
          "type": "bytes"
        }
      ],
      "name": "setContenthash",
      "outputs": [],
      "stateMutability": "nonpayable",
      "type": "function"
    },
    {
      "inputs": [
        {
          "internalType": "bytes32",
          "name": "node",
          "type": "bytes32"
        },
        {
          "internalType": "bytes",
          "name": "data",
          "type": "bytes"
        }
      ],
      "name": "setDNSRecords",
      "outputs": [],
      "stateMutability": "nonpayable",
      "type": "function"
    },
    {
      "inputs": [
        {
          "internalType": "bytes32",
          "name": "node",
          "type": "bytes32"
        },
        {
          "internalType": "bytes4",
          "name": "interfaceID",
          "type": "bytes4"
        },
        {
          "internalType": "address",
          "name": "implementer",
          "type": "address"
        }
      ],
      "name": "setInterface",
      "outputs": [],
      "stateMutability": "nonpayable",
      "type": "function"
    },
    {
      "inputs": [
        {
          "internalType": "bytes32",
          "name": "node",
          "type": "bytes32"
        },
        {
          "internalType": "string",
          "name": "newName",
          "type": "string"
        }
      ],
      "name": "setName",
      "outputs": [],
      "stateMutability": "nonpayable",
      "type": "function"
    },
    {
      "inputs": [
        {
          "internalType": "bytes32",
          "name": "node",
          "type": "bytes32"
        },
        {
          "internalType": "bytes32",
          "name": "x",
          "type": "bytes32"
        },
        {
          "internalType": "bytes32",
          "name": "y",
          "type": "bytes32"
        }
      ],
      "name": "setPubkey",
      "outputs": [],
      "stateMutability": "nonpayable",
      "type": "function"
    },
    {
      "inputs": [
        {
          "internalType": "bytes32",
          "name": "node",
          "type": "bytes32"
        },
        {
          "internalType": "string",
          "name": "key",
          "type": "string"
        },
        {
          "internalType": "string",
          "name": "value",
          "type": "string"
        }
      ],
      "name": "setText",
      "outputs": [],
      "stateMutability": "nonpayable",
      "type": "function"
    },
    {
      "inputs": [
        {
          "internalType": "bytes32",
          "name": "node",
          "type": "bytes32"
        },
        {
          "internalType": "bytes",
          "name": "hash",
          "type": "bytes"
        }
      ],
      "name": "setZonehash",
      "outputs": [],
      "stateMutability": "nonpayable",
      "type": "function"
    },
    {
      "inputs": [
        {
          "internalType": "bytes4",
          "name": "interfaceID",
          "type": "bytes4"
        }
      ],
      "name": "supportsInterface",
      "outputs": [
        {
          "internalType": "bool",
          "name": "",
          "type": "bool"
        }
      ],
      "stateMutability": "pure",
      "type": "function"
    },
    {
      "inputs": [
        {
          "internalType": "bytes32",
          "name": "node",
          "type": "bytes32"
        },
        {
          "internalType": "string",
          "name": "key",
          "type": "string"
        }
      ],
      "name": "text",
      "outputs": [
        {
          "internalType": "string",
          "name": "",
          "type": "string"
        }
      ],
      "stateMutability": "view",
      "type": "function"
    },
    {
      "inputs": [
        {
          "internalType": "address",
          "name": "newOwner",
          "type": "address"
        }
      ],
      "name": "transferOwnership",
      "outputs": [],
      "stateMutability": "nonpayable",
      "type": "function"
    },
    {
      "inputs": [
        {
          "internalType": "bytes32",
          "name": "node",
          "type": "bytes32"
        }
      ],
      "name": "zonehash",
      "outputs": [
        {
          "internalType": "bytes",
          "name": "",
          "type": "bytes"
        }
      ],
      "stateMutability": "view",
      "type": "function"
    }
  ],
  "transactionHash": "0x45bb2d750493ae721979330934c1c856cd4789ecd91697b0673372d28b159f13",
  "args": [],
  "solcInputHash": "749be1ed3fab0e88f5d937191903a6e9",
  "bytecode": "0x608060405234801561001057600080fd5b5061001a3361001f565b61006f565b600080546001600160a01b038381166001600160a01b0319831681178455604051919092169283917f8be0079c531659141344cd1fd0a4f28419497f9722a3daafe3b4186f6b6457e09190a35050565b6129118061007e6000396000f3fe608060405234801561001057600080fd5b50600436106101ae5760003560e01c8063715018a6116100ee578063bc1c58d111610097578063d5fa2b0011610071578063d5fa2b0014610403578063e59d895d14610416578063f1cb7e0614610429578063f2fde38b1461043c57600080fd5b8063bc1c58d1146103a0578063c8690233146103b3578063ce3decdc146103f057600080fd5b80638da5cb5b116100c85780638da5cb5b1461035c578063a8fa56821461037a578063ad5780af1461038d57600080fd5b8063715018a61461032e57806377372213146103365780638b95dd711461034957600080fd5b8063304e6ade1161015b57806359d1d43c1161013557806359d1d43c146102d55780635c98042b146102f5578063623195b014610308578063691f34311461031b57600080fd5b8063304e6ade1461026f5780633b3b57de146102825780634cbf6ba41461029557600080fd5b8063124a319c1161018c578063124a319c146102035780632203ab561461023b57806329cd62ea1461025c57600080fd5b806301ffc9a7146101b35780630af179d7146101db57806310f13a8c146101f0575b600080fd5b6101c66101c1366004612596565b61044f565b60405190151581526020015b60405180910390f35b6101ee6101e93660046123a7565b610460565b005b6101ee6101fe3660046123f1565b61065e565b61021661021136600461234a565b61071e565b60405173ffffffffffffffffffffffffffffffffffffffff90911681526020016101d2565b61024e6102493660046122c0565b610ae9565b6040516101d292919061271a565b6101ee61026a3660046122e1565b610c04565b6101ee61027d3660046123a7565b610c97565b61021661029036600461227d565b610d09565b6101c66102a33660046122c0565b600091825260076020908152604080842060058352818520548552825280842092845291905290205461ffff16151590565b6102e86102e33660046123a7565b610d3c565b6040516101d29190612682565b6102e861030336600461227d565b610e01565b6101ee610316366004612468565b610ea3565b6102e861032936600461227d565b610f39565b6101ee610f56565b6101ee6103443660046123a7565b610f6a565b6101ee6103573660046124b9565b610fdc565b60005473ffffffffffffffffffffffffffffffffffffffff16610216565b6102e861038836600461230c565b6110c7565b6101ee61039b36600461227d565b61110a565b6102e86103ae36600461227d565b61117e565b6103db6103c136600461227d565b6000908152600a6020526040902080546001909101549091565b604080519283526020830191909152016101d2565b6101ee6103fe3660046123a7565b61119b565b6101ee610411366004612295565b6112ba565b6101ee61042436600461236c565b6112f4565b6102e86104373660046122c0565b6113d1565b6101ee61044a366004612263565b61147f565b600061045a8261153b565b92915050565b600054839073ffffffffffffffffffffffffffffffffffffffff16331461048657600080fd5b6000806060806000806104d360008a8a8080601f01602080910402602001604051908101604052809392919081815260200183838082843760009201919091525092939250506115919050565b90505b805151602082015110156105f95761ffff861661053857806040015195506104fd816115f2565b9350836040516020016105109190612642565b60405160208183030381529060405280519060200120915061053181611613565b92506105eb565b6000610543826115f2565b9050816040015161ffff168761ffff161415806105675750610565858261162f565b155b156105e9576105c28b86898d8d8080601f016020809104026020016040519081016040528093929190818152602001838380828437600092019190915250505060208801518c91506105ba90829061274b565b8a511561164d565b8160400151965081602001519550809450848051906020012092506105e682611613565b93505b505b6105f48161188f565b6104d6565b50825115610653576106538984878b8b8080601f0160208091040260200160405190810160405280939291908181526020018383808284376000920191909152508b925061064b91508290508e61274b565b88511561164d565b505050505050505050565b600054859073ffffffffffffffffffffffffffffffffffffffff16331461068457600080fd5b8282600b600089815260200190815260200160002087876040516106a992919061265e565b9081526040519081900360200190206106c3929091612069565b5084846040516106d492919061265e565b6040518091039020867fd8c9334b1a9c2f9da342a0a2b32629c1a229b6445dad78947f674b44444a7550878760405161070e92919061266e565b60405180910390a3505050505050565b60008281526008602090815260408083207fffffffff000000000000000000000000000000000000000000000000000000008516845290915281205473ffffffffffffffffffffffffffffffffffffffff16801561077d57905061045a565b600061078885610d09565b905073ffffffffffffffffffffffffffffffffffffffff81166107b05760009250505061045a565b6040517f01ffc9a7000000000000000000000000000000000000000000000000000000006024820152600090819073ffffffffffffffffffffffffffffffffffffffff841690604401604080517fffffffffffffffffffffffffffffffffffffffffffffffffffffffffffffffe08184030181529181526020820180517bffffffffffffffffffffffffffffffffffffffffffffffffffffffff167f01ffc9a7000000000000000000000000000000000000000000000000000000001790525161087a9190612642565b600060405180830381855afa9150503d80600081146108b5576040519150601f19603f3d011682016040523d82523d6000602084013e6108ba565b606091505b50915091508115806108cd575060208151105b80610936575080601f8151811061090d577f4e487b7100000000000000000000000000000000000000000000000000000000600052603260045260246000fd5b01602001517fff0000000000000000000000000000000000000000000000000000000000000016155b1561094857600094505050505061045a565b6040517fffffffff000000000000000000000000000000000000000000000000000000008716602482015273ffffffffffffffffffffffffffffffffffffffff841690604401604080517fffffffffffffffffffffffffffffffffffffffffffffffffffffffffffffffe08184030181529181526020820180517bffffffffffffffffffffffffffffffffffffffffffffffffffffffff167f01ffc9a70000000000000000000000000000000000000000000000000000000017905251610a0f9190612642565b600060405180830381855afa9150503d8060008114610a4a576040519150601f19603f3d011682016040523d82523d6000602084013e610a4f565b606091505b509092509050811580610a63575060208151105b80610acc575080601f81518110610aa3577f4e487b7100000000000000000000000000000000000000000000000000000000600052603260045260246000fd5b01602001517fff0000000000000000000000000000000000000000000000000000000000000016155b15610ade57600094505050505061045a565b509095945050505050565b600082815260016020819052604082206060915b848111610be45780851615801590610b2d575060008181526020839052604081208054610b29906127ce565b9050115b15610bdc5780826000838152602001908152602001600020808054610b51906127ce565b80601f0160208091040260200160405190810160405280929190818152602001828054610b7d906127ce565b8015610bca5780601f10610b9f57610100808354040283529160200191610bca565b820191906000526020600020905b815481529060010190602001808311610bad57829003601f168201915b50505050509050935093505050610bfd565b60011b610afd565b5060006040518060200160405280600081525092509250505b9250929050565b600054839073ffffffffffffffffffffffffffffffffffffffff163314610c2a57600080fd5b60408051808201825284815260208082018581526000888152600a83528490209251835551600190920191909155815185815290810184905285917f1d6f5e03d3f63eb58751986629a5439baee5079ff04f345becb66e23eb154e4691015b60405180910390a250505050565b600054839073ffffffffffffffffffffffffffffffffffffffff163314610cbd57600080fd5b6000848152600360205260409020610cd6908484612069565b50837fe379c1624ed7e714cc0937528a32359d69d5281337765313dba4e081b72d75788484604051610c8992919061266e565b600080610d1783603c6113d1565b9050805160001415610d2c5750600092915050565b610d3581611977565b9392505050565b6060600b60008581526020019081526020016000208383604051610d6192919061265e565b90815260200160405180910390208054610d7a906127ce565b80601f0160208091040260200160405190810160405280929190818152602001828054610da6906127ce565b8015610df35780601f10610dc857610100808354040283529160200191610df3565b820191906000526020600020905b815481529060010190602001808311610dd657829003601f168201915b505050505090509392505050565b6000818152600460205260409020805460609190610e1e906127ce565b80601f0160208091040260200160405190810160405280929190818152602001828054610e4a906127ce565b8015610e975780601f10610e6c57610100808354040283529160200191610e97565b820191906000526020600020905b815481529060010190602001808311610e7a57829003601f168201915b50505050509050919050565b600054849073ffffffffffffffffffffffffffffffffffffffff163314610ec957600080fd5b83610ed560018261274b565b1615610ee057600080fd5b60008581526001602090815260408083208784529091529020610f04908484612069565b50604051849086907faa121bbeef5f32f5961a2a28966e769023910fc9479059ee3495d4c1a696efe390600090a35050505050565b6000818152600960205260409020805460609190610e1e906127ce565b610f5e61199f565b610f686000611a20565b565b600054839073ffffffffffffffffffffffffffffffffffffffff163314610f9057600080fd5b6000848152600960205260409020610fa9908484612069565b50837fb7d29e911041e8d9b843369e890bcb72c9388692ba48b65ac54e7214c4c348f78484604051610c8992919061266e565b600054839073ffffffffffffffffffffffffffffffffffffffff16331461100257600080fd5b837f65412581168e88a1e60c6459d7f44ae83ad0832e670826c05a4e2476b57af752848460405161103492919061271a565b60405180910390a2603c83141561109957837f52d7d861f09ab3d26239d492e8968629f95e9e318cf0b73bfddc441522a15fd261107084611977565b60405173ffffffffffffffffffffffffffffffffffffffff909116815260200160405180910390a25b6000848152600260209081526040808320868452825290912083516110c09285019061210b565b5050505050565b6000838152600660209081526040808320600583528184205484528252808320858452825280832061ffff851684529091529020805460609190610d7a906127ce565b600054819073ffffffffffffffffffffffffffffffffffffffff16331461113057600080fd5b600082815260056020526040812080549161114a83612844565b909155505060405182907fb757169b8492ca2f1c6619d9d76ce22803035c3b1d5f6930dffe7b127c1a198390600090a25050565b6000818152600360205260409020805460609190610e1e906127ce565b600054839073ffffffffffffffffffffffffffffffffffffffff1633146111c157600080fd5b600084815260046020526040812080546111da906127ce565b80601f0160208091040260200160405190810160405280929190818152602001828054611206906127ce565b80156112535780601f1061122857610100808354040283529160200191611253565b820191906000526020600020905b81548152906001019060200180831161123657829003601f168201915b505050600088815260046020526040902092935061127692915086905085612069565b50847f8f15ed4b723ef428f250961da8315675b507046737e19319fc1a4d81bfe87f858286866040516112ab93929190612695565b60405180910390a25050505050565b600054829073ffffffffffffffffffffffffffffffffffffffff1633146112e057600080fd5b6112ef83603c61035785611a95565b505050565b600054839073ffffffffffffffffffffffffffffffffffffffff16331461131a57600080fd5b60008481526008602090815260408083207fffffffff0000000000000000000000000000000000000000000000000000000087168085529083529281902080547fffffffffffffffffffffffff00000000000000000000000000000000000000001673ffffffffffffffffffffffffffffffffffffffff8716908117909155905190815286917f7c69f06bea0bdef565b709e93a147836b0063ba2dd89f02d0b7e8d931e6a6daa910160405180910390a350505050565b600082815260026020908152604080832084845290915290208054606091906113f9906127ce565b80601f0160208091040260200160405190810160405280929190818152602001828054611425906127ce565b80156114725780601f1061144757610100808354040283529160200191611472565b820191906000526020600020905b81548152906001019060200180831161145557829003601f168201915b5050505050905092915050565b61148761199f565b73ffffffffffffffffffffffffffffffffffffffff811661152f576040517f08c379a000000000000000000000000000000000000000000000000000000000815260206004820152602660248201527f4f776e61626c653a206e6577206f776e657220697320746865207a65726f206160448201527f646472657373000000000000000000000000000000000000000000000000000060648201526084015b60405180910390fd5b61153881611a20565b50565b60007fffffffff0000000000000000000000000000000000000000000000000000000082167f59d1d43c00000000000000000000000000000000000000000000000000000000148061045a575061045a82611ace565b6115df6040518060e001604052806060815260200160008152602001600061ffff168152602001600061ffff168152602001600063ffffffff16815260200160008152602001600081525090565b82815260c0810182905261045a8161188f565b6020810151815160609161045a9161160a9082611b24565b84519190611baa565b60a081015160c082015160609161045a9161160a90829061274b565b600081518351148015610d355750610d358360008460008751611c48565b60008781526005602090815260408220548851918901919091209091611674878787611baa565b9050831561177d5760008a81526006602090815260408083208684528252808320858452825280832061ffff8c168452909152902080546116b4906127ce565b1590506117085760008a815260076020908152604080832086845282528083208584529091528120805461ffff16916116ec83612792565b91906101000a81548161ffff021916908361ffff160217905550505b60008a81526006602090815260408083208684528252808320858452825280832061ffff8c168452909152812061173e9161217f565b897f03528ed0c2a3ebc993b12ce3c16bb382f9c7d88ef7d8a1bf290eaf35955a12078a8a6040516117709291906126c5565b60405180910390a2611883565b60008a81526006602090815260408083208684528252808320858452825280832061ffff8c168452909152902080546117b5906127ce565b1515905061180a5760008a815260076020908152604080832086845282528083208584529091528120805461ffff16916117ee83612822565b91906101000a81548161ffff021916908361ffff160217905550505b60008a81526006602090815260408083208684528252808320858452825280832061ffff8c168452825290912082516118459284019061210b565b50897f52a608b3303a48862d07a73d82fa221318c0027fbbcfb1b2329bface3f19ff2b8a8a8460405161187a939291906126eb565b60405180910390a25b50505050505050505050565b60c081015160208201819052815151116118a65750565b60006118ba82600001518360200151611b24565b82602001516118c99190612733565b82519091506118d89082611c6b565b61ffff1660408301526118ec600282612733565b82519091506118fb9082611c6b565b61ffff16606083015261190f600282612733565b825190915061191e9082611c93565b63ffffffff166080830152611934600482612733565b82519091506000906119469083611c6b565b61ffff169050611957600283612733565b60a08401819052915061196a8183612733565b60c0909301929092525050565b6000815160141461198757600080fd5b50602001516c01000000000000000000000000900490565b60005473ffffffffffffffffffffffffffffffffffffffff163314610f68576040517f08c379a000000000000000000000000000000000000000000000000000000000815260206004820181905260248201527f4f776e61626c653a2063616c6c6572206973206e6f7420746865206f776e65726044820152606401611526565b6000805473ffffffffffffffffffffffffffffffffffffffff8381167fffffffffffffffffffffffff0000000000000000000000000000000000000000831681178455604051919092169283917f8be0079c531659141344cd1fd0a4f28419497f9722a3daafe3b4186f6b6457e09190a35050565b6040805160148082528183019092526060916020820181803683375050506c010000000000000000000000009290920260208301525090565b60007fffffffff0000000000000000000000000000000000000000000000000000000082167fc869023300000000000000000000000000000000000000000000000000000000148061045a575061045a82611cbd565b6000815b83518110611b5f577f4e487b7100000000000000000000000000000000000000000000000000000000600052600160045260246000fd5b6000611b6b8583611d13565b60ff169050611b7b816001612733565b611b859083612733565b915080611b925750611b98565b50611b28565b611ba2838261274b565b949350505050565b8251606090611bb98385612733565b1115611bc457600080fd5b60008267ffffffffffffffff811115611c06577f4e487b7100000000000000000000000000000000000000000000000000000000600052604160045260246000fd5b6040519080825280601f01601f191660200182016040528015611c30576020820181803683370190505b50905060208082019086860101610ade828287611d5e565b6000611c55848484611dd2565b611c60878785611dd2565b149695505050505050565b8151600090611c7b836002612733565b1115611c8657600080fd5b50016002015161ffff1690565b8151600090611ca3836004612733565b1115611cae57600080fd5b50016004015163ffffffff1690565b60007fffffffff0000000000000000000000000000000000000000000000000000000082167f691f343100000000000000000000000000000000000000000000000000000000148061045a575061045a82611df6565b6000828281518110611d4e577f4e487b7100000000000000000000000000000000000000000000000000000000600052603260045260246000fd5b016020015160f81c905092915050565b60208110611d965781518352611d75602084612733565b9250611d82602083612733565b9150611d8f60208261274b565b9050611d5e565b905182516020929092036101000a7fffffffffffffffffffffffffffffffffffffffffffffffffffffffffffffffff0180199091169116179052565b8251600090611de18385612733565b1115611dec57600080fd5b5091016020012090565b60007fffffffff0000000000000000000000000000000000000000000000000000000082167f124a319c00000000000000000000000000000000000000000000000000000000148061045a575061045a8260007fffffffff0000000000000000000000000000000000000000000000000000000082167fa8fa5682000000000000000000000000000000000000000000000000000000001480611eda57507fffffffff0000000000000000000000000000000000000000000000000000000082167f5c98042b00000000000000000000000000000000000000000000000000000000145b8061045a575061045a8260007fffffffff0000000000000000000000000000000000000000000000000000000082167fbc1c58d100000000000000000000000000000000000000000000000000000000148061045a575061045a8260007fffffffff0000000000000000000000000000000000000000000000000000000082167f3b3b57de000000000000000000000000000000000000000000000000000000001480611fc857507fffffffff0000000000000000000000000000000000000000000000000000000082167ff1cb7e0600000000000000000000000000000000000000000000000000000000145b8061045a575061045a8260007fffffffff0000000000000000000000000000000000000000000000000000000082167f2203ab5600000000000000000000000000000000000000000000000000000000148061045a57507f01ffc9a7000000000000000000000000000000000000000000000000000000007fffffffff0000000000000000000000000000000000000000000000000000000083161461045a565b828054612075906127ce565b90600052602060002090601f01602090048101928261209757600085556120fb565b82601f106120ce578280017fffffffffffffffffffffffffffffffffffffffffffffffffffffffffffffff008235161785556120fb565b828001600101855582156120fb579182015b828111156120fb5782358255916020019190600101906120e0565b506121079291506121b5565b5090565b828054612117906127ce565b90600052602060002090601f01602090048101928261213957600085556120fb565b82601f1061215257805160ff19168380011785556120fb565b828001600101855582156120fb579182015b828111156120fb578251825591602001919060010190612164565b50805461218b906127ce565b6000825580601f1061219b575050565b601f01602090049060005260206000209081019061153891905b5b8082111561210757600081556001016121b6565b803573ffffffffffffffffffffffffffffffffffffffff811681146121ee57600080fd5b919050565b80357fffffffff00000000000000000000000000000000000000000000000000000000811681146121ee57600080fd5b60008083601f840112612234578182fd5b50813567ffffffffffffffff81111561224b578182fd5b602083019150836020828501011115610bfd57600080fd5b600060208284031215612274578081fd5b610d35826121ca565b60006020828403121561228e578081fd5b5035919050565b600080604083850312156122a7578081fd5b823591506122b7602084016121ca565b90509250929050565b600080604083850312156122d2578182fd5b50508035926020909101359150565b6000806000606084860312156122f5578081fd5b505081359360208301359350604090920135919050565b600080600060608486031215612320578283fd5b8335925060208401359150604084013561ffff8116811461233f578182fd5b809150509250925092565b6000806040838503121561235c578182fd5b823591506122b7602084016121f3565b600080600060608486031215612380578283fd5b83359250612390602085016121f3565b915061239e604085016121ca565b90509250925092565b6000806000604084860312156123bb578283fd5b83359250602084013567ffffffffffffffff8111156123d8578283fd5b6123e486828701612223565b9497909650939450505050565b600080600080600060608688031215612408578081fd5b85359450602086013567ffffffffffffffff80821115612426578283fd5b61243289838a01612223565b9096509450604088013591508082111561244a578283fd5b5061245788828901612223565b969995985093965092949392505050565b6000806000806060858703121561247d578182fd5b8435935060208501359250604085013567ffffffffffffffff8111156124a1578283fd5b6124ad87828801612223565b95989497509550505050565b6000806000606084860312156124cd578081fd5b8335925060208401359150604084013567ffffffffffffffff808211156124f2578283fd5b818601915086601f830112612505578283fd5b813581811115612517576125176128ac565b604051601f82017fffffffffffffffffffffffffffffffffffffffffffffffffffffffffffffffe0908116603f0116810190838211818310171561255d5761255d6128ac565b81604052828152896020848701011115612575578586fd5b82602086016020830137856020848301015280955050505050509250925092565b6000602082840312156125a7578081fd5b610d35826121f3565b81835281816020850137506000806020838501015260207fffffffffffffffffffffffffffffffffffffffffffffffffffffffffffffffe0601f840116840101905092915050565b60008151808452612610816020860160208601612762565b601f017fffffffffffffffffffffffffffffffffffffffffffffffffffffffffffffffe0169290920160200192915050565b60008251612654818460208701612762565b9190910192915050565b8183823760009101908152919050565b602081526000611ba26020830184866125b0565b602081526000610d3560208301846125f8565b6040815260006126a860408301866125f8565b82810360208401526126bb8185876125b0565b9695505050505050565b6040815260006126d860408301856125f8565b905061ffff831660208301529392505050565b6060815260006126fe60608301866125f8565b61ffff8516602084015282810360408401526126bb81856125f8565b828152604060208201526000611ba260408301846125f8565b600082198211156127465761274661287d565b500190565b60008282101561275d5761275d61287d565b500390565b60005b8381101561277d578181015183820152602001612765565b8381111561278c576000848401525b50505050565b600061ffff8216806127a6576127a661287d565b7fffffffffffffffffffffffffffffffffffffffffffffffffffffffffffffffff0192915050565b600181811c908216806127e257607f821691505b6020821081141561281c577f4e487b7100000000000000000000000000000000000000000000000000000000600052602260045260246000fd5b50919050565b600061ffff8083168181141561283a5761283a61287d565b6001019392505050565b60007fffffffffffffffffffffffffffffffffffffffffffffffffffffffffffffffff8214156128765761287661287d565b5060010190565b7f4e487b7100000000000000000000000000000000000000000000000000000000600052601160045260246000fd5b7f4e487b7100000000000000000000000000000000000000000000000000000000600052604160045260246000fdfea264697066735822122018ab977b9021928eeea0326eb99a9dc6074d9783e9508e5361e27fbabad96edb64736f6c63430008040033",
  "devdoc": {
    "kind": "dev",
    "methods": {
      "ABI(bytes32,uint256)": {
        "params": {
          "contentTypes": "A bitwise OR of the ABI formats accepted by the caller.",
          "node": "The ENS node to query"
        },
        "returns": {
          "_0": "contentType The content type of the return value",
          "_1": "data The ABI data"
        }
      },
      "addr(bytes32)": {
        "params": {
          "node": "The ENS node to query."
        },
        "returns": {
          "_0": "The associated address."
        }
      },
      "clearDNSZone(bytes32)": {
        "params": {
          "node": "the namehash of the node for which to clear the zone"
        }
      },
      "contenthash(bytes32)": {
        "params": {
          "node": "The ENS node to query."
        },
        "returns": {
          "_0": "The associated contenthash."
        }
      },
      "dnsRecord(bytes32,bytes32,uint16)": {
        "params": {
          "name": "the keccak-256 hash of the fully-qualified name for which to fetch the record",
          "node": "the namehash of the node for which to fetch the record",
          "resource": "the ID of the resource as per https://en.wikipedia.org/wiki/List_of_DNS_record_types"
        },
        "returns": {
          "_0": "the DNS record in wire format if present, otherwise empty"
        }
      },
      "hasDNSRecords(bytes32,bytes32)": {
        "params": {
          "name": "the namehash of the node for which to check the records",
          "node": "the namehash of the node for which to check the records"
        }
      },
      "interfaceImplementer(bytes32,bytes4)": {
        "params": {
          "interfaceID": "The EIP 165 interface ID to check for.",
          "node": "The ENS node to query."
        },
        "returns": {
          "_0": "The address that implements this interface, or 0 if the interface is unsupported."
        }
      },
      "name(bytes32)": {
        "params": {
          "node": "The ENS node to query."
        },
        "returns": {
          "_0": "The associated name."
        }
      },
      "owner()": {
        "details": "Returns the address of the current owner."
      },
      "pubkey(bytes32)": {
        "params": {
          "node": "The ENS node to query"
        },
        "returns": {
          "x": "The X coordinate of the curve point for the public key.",
          "y": "The Y coordinate of the curve point for the public key."
        }
      },
      "renounceOwnership()": {
        "details": "Leaves the contract without owner. It will not be possible to call `onlyOwner` functions anymore. Can only be called by the current owner. NOTE: Renouncing ownership will leave the contract without an owner, thereby removing any functionality that is only available to the owner."
      },
      "setABI(bytes32,uint256,bytes)": {
        "params": {
          "contentType": "The content type of the ABI",
          "data": "The ABI data.",
          "node": "The node to update."
        }
      },
      "setAddr(bytes32,address)": {
        "params": {
          "a": "The address to set.",
          "node": "The node to update."
        }
      },
      "setContenthash(bytes32,bytes)": {
        "params": {
          "hash": "The contenthash to set",
          "node": "The node to update."
        }
      },
      "setDNSRecords(bytes32,bytes)": {
        "params": {
          "data": "the DNS wire format records to set",
          "node": "the namehash of the node for which to set the records"
        }
      },
      "setInterface(bytes32,bytes4,address)": {
        "params": {
          "implementer": "The address of a contract that implements this interface for this node.",
          "interfaceID": "The EIP 165 interface ID.",
          "node": "The node to update."
        }
      },
      "setName(bytes32,string)": {
        "params": {
          "node": "The node to update."
        }
      },
      "setPubkey(bytes32,bytes32,bytes32)": {
        "params": {
          "node": "The ENS node to query",
          "x": "the X coordinate of the curve point for the public key.",
          "y": "the Y coordinate of the curve point for the public key."
        }
      },
      "setText(bytes32,string,string)": {
        "params": {
          "key": "The key to set.",
          "node": "The node to update.",
          "value": "The text data value to set."
        }
      },
      "setZonehash(bytes32,bytes)": {
        "params": {
          "hash": "The zonehash to set",
          "node": "The node to update."
        }
      },
      "text(bytes32,string)": {
        "params": {
          "key": "The text data key to query.",
          "node": "The ENS node to query."
        },
        "returns": {
          "_0": "The associated text data."
        }
      },
      "transferOwnership(address)": {
        "details": "Transfers ownership of the contract to a new account (`newOwner`). Can only be called by the current owner."
      },
      "zonehash(bytes32)": {
        "params": {
          "node": "The ENS node to query."
        },
        "returns": {
          "_0": "The associated contenthash."
        }
      }
    },
    "version": 1
  },
  "userdoc": {
    "kind": "user",
    "methods": {
      "ABI(bytes32,uint256)": {
        "notice": "Returns the ABI associated with an ENS node. Defined in EIP205."
      },
      "addr(bytes32)": {
        "notice": "Returns the address associated with an ENS node."
      },
      "clearDNSZone(bytes32)": {
        "notice": "Clear all information for a DNS zone."
      },
      "contenthash(bytes32)": {
        "notice": "Returns the contenthash associated with an ENS node."
      },
      "dnsRecord(bytes32,bytes32,uint16)": {
        "notice": "Obtain a DNS record."
      },
      "hasDNSRecords(bytes32,bytes32)": {
        "notice": "Check if a given node has records."
      },
      "interfaceImplementer(bytes32,bytes4)": {
        "notice": "Returns the address of a contract that implements the specified interface for this name. If an implementer has not been set for this interfaceID and name, the resolver will query the contract at `addr()`. If `addr()` is set, a contract exists at that address, and that contract implements EIP165 and returns `true` for the specified interfaceID, its address will be returned."
      },
      "name(bytes32)": {
        "notice": "Returns the name associated with an ENS node, for reverse records. Defined in EIP181."
      },
      "pubkey(bytes32)": {
        "notice": "Returns the SECP256k1 public key associated with an ENS node. Defined in EIP 619."
      },
      "setABI(bytes32,uint256,bytes)": {
        "notice": "Sets the ABI associated with an ENS node. Nodes may have one ABI of each content type. To remove an ABI, set it to the empty string."
      },
      "setAddr(bytes32,address)": {
        "notice": "Sets the address associated with an ENS node. May only be called by the owner of that node in the ENS registry."
      },
      "setContenthash(bytes32,bytes)": {
        "notice": "Sets the contenthash associated with an ENS node. May only be called by the owner of that node in the ENS registry."
      },
      "setDNSRecords(bytes32,bytes)": {
        "notice": "Set one or more DNS records.  Records are supplied in wire-format. Records with the same node/name/resource must be supplied one after the other to ensure the data is updated correctly. For example, if the data was supplied:     a.example.com IN A 1.2.3.4     a.example.com IN A 5.6.7.8     www.example.com IN CNAME a.example.com. then this would store the two A records for a.example.com correctly as a single RRSET, however if the data was supplied:     a.example.com IN A 1.2.3.4     www.example.com IN CNAME a.example.com.     a.example.com IN A 5.6.7.8 then this would store the first A record, the CNAME, then the second A record which would overwrite the first."
      },
      "setInterface(bytes32,bytes4,address)": {
        "notice": "Sets an interface associated with a name. Setting the address to 0 restores the default behaviour of querying the contract at `addr()` for interface support."
      },
      "setName(bytes32,string)": {
        "notice": "Sets the name associated with an ENS node, for reverse records. May only be called by the owner of that node in the ENS registry."
      },
      "setPubkey(bytes32,bytes32,bytes32)": {
        "notice": "Sets the SECP256k1 public key associated with an ENS node."
      },
      "setText(bytes32,string,string)": {
        "notice": "Sets the text data associated with an ENS node and key. May only be called by the owner of that node in the ENS registry."
      },
      "setZonehash(bytes32,bytes)": {
        "notice": "setZonehash sets the hash for the zone. May only be called by the owner of that node in the ENS registry."
      },
      "text(bytes32,string)": {
        "notice": "Returns the text data associated with an ENS node and key."
      },
      "zonehash(bytes32)": {
        "notice": "zonehash obtains the hash for the zone."
      }
    },
    "notice": "A simple resolver anyone can use; only allows the owner of a node to set its address.",
    "version": 1
  },
  "storageLayout": {
    "storage": [
      {
        "astId": 545,
        "contract": "contracts/resolvers/OwnedResolver.sol:OwnedResolver",
        "label": "_owner",
        "offset": 0,
        "slot": "0",
        "type": "t_address"
      },
      {
        "astId": 13917,
        "contract": "contracts/resolvers/OwnedResolver.sol:OwnedResolver",
        "label": "abis",
        "offset": 0,
        "slot": "1",
        "type": "t_mapping(t_bytes32,t_mapping(t_uint256,t_bytes_storage))"
      },
      {
        "astId": 14061,
        "contract": "contracts/resolvers/OwnedResolver.sol:OwnedResolver",
        "label": "_addresses",
        "offset": 0,
        "slot": "2",
        "type": "t_mapping(t_bytes32,t_mapping(t_uint256,t_bytes_storage))"
      },
      {
        "astId": 14242,
        "contract": "contracts/resolvers/OwnedResolver.sol:OwnedResolver",
        "label": "hashes",
        "offset": 0,
        "slot": "3",
        "type": "t_mapping(t_bytes32,t_bytes_storage)"
      },
      {
        "astId": 14322,
        "contract": "contracts/resolvers/OwnedResolver.sol:OwnedResolver",
        "label": "zonehashes",
        "offset": 0,
        "slot": "4",
        "type": "t_mapping(t_bytes32,t_bytes_storage)"
      },
      {
        "astId": 14326,
        "contract": "contracts/resolvers/OwnedResolver.sol:OwnedResolver",
        "label": "versions",
        "offset": 0,
        "slot": "5",
        "type": "t_mapping(t_bytes32,t_uint256)"
      },
      {
        "astId": 14336,
        "contract": "contracts/resolvers/OwnedResolver.sol:OwnedResolver",
        "label": "records",
        "offset": 0,
        "slot": "6",
        "type": "t_mapping(t_bytes32,t_mapping(t_uint256,t_mapping(t_bytes32,t_mapping(t_uint16,t_bytes_storage))))"
      },
      {
        "astId": 14344,
        "contract": "contracts/resolvers/OwnedResolver.sol:OwnedResolver",
        "label": "nameEntriesCount",
        "offset": 0,
        "slot": "7",
        "type": "t_mapping(t_bytes32,t_mapping(t_uint256,t_mapping(t_bytes32,t_uint16)))"
      },
      {
        "astId": 15011,
        "contract": "contracts/resolvers/OwnedResolver.sol:OwnedResolver",
        "label": "interfaces",
        "offset": 0,
        "slot": "8",
        "type": "t_mapping(t_bytes32,t_mapping(t_bytes4,t_address))"
      },
      {
        "astId": 15193,
        "contract": "contracts/resolvers/OwnedResolver.sol:OwnedResolver",
        "label": "names",
        "offset": 0,
        "slot": "9",
        "type": "t_mapping(t_bytes32,t_string_storage)"
      },
      {
        "astId": 15270,
        "contract": "contracts/resolvers/OwnedResolver.sol:OwnedResolver",
        "label": "pubkeys",
        "offset": 0,
        "slot": "10",
        "type": "t_mapping(t_bytes32,t_struct(PublicKey)15265_storage)"
      },
      {
        "astId": 15357,
        "contract": "contracts/resolvers/OwnedResolver.sol:OwnedResolver",
        "label": "texts",
        "offset": 0,
        "slot": "11",
        "type": "t_mapping(t_bytes32,t_mapping(t_string_memory_ptr,t_string_storage))"
      }
    ],
    "types": {
      "t_address": {
        "encoding": "inplace",
        "label": "address",
        "numberOfBytes": "20"
      },
      "t_bytes32": {
        "encoding": "inplace",
        "label": "bytes32",
        "numberOfBytes": "32"
      },
      "t_bytes4": {
        "encoding": "inplace",
        "label": "bytes4",
        "numberOfBytes": "4"
      },
      "t_bytes_storage": {
        "encoding": "bytes",
        "label": "bytes",
        "numberOfBytes": "32"
      },
      "t_mapping(t_bytes32,t_bytes_storage)": {
        "encoding": "mapping",
        "key": "t_bytes32",
        "label": "mapping(bytes32 => bytes)",
        "numberOfBytes": "32",
        "value": "t_bytes_storage"
      },
      "t_mapping(t_bytes32,t_mapping(t_bytes4,t_address))": {
        "encoding": "mapping",
        "key": "t_bytes32",
        "label": "mapping(bytes32 => mapping(bytes4 => address))",
        "numberOfBytes": "32",
        "value": "t_mapping(t_bytes4,t_address)"
      },
      "t_mapping(t_bytes32,t_mapping(t_string_memory_ptr,t_string_storage))": {
        "encoding": "mapping",
        "key": "t_bytes32",
        "label": "mapping(bytes32 => mapping(string => string))",
        "numberOfBytes": "32",
        "value": "t_mapping(t_string_memory_ptr,t_string_storage)"
      },
      "t_mapping(t_bytes32,t_mapping(t_uint16,t_bytes_storage))": {
        "encoding": "mapping",
        "key": "t_bytes32",
        "label": "mapping(bytes32 => mapping(uint16 => bytes))",
        "numberOfBytes": "32",
        "value": "t_mapping(t_uint16,t_bytes_storage)"
      },
      "t_mapping(t_bytes32,t_mapping(t_uint256,t_bytes_storage))": {
        "encoding": "mapping",
        "key": "t_bytes32",
        "label": "mapping(bytes32 => mapping(uint256 => bytes))",
        "numberOfBytes": "32",
        "value": "t_mapping(t_uint256,t_bytes_storage)"
      },
      "t_mapping(t_bytes32,t_mapping(t_uint256,t_mapping(t_bytes32,t_mapping(t_uint16,t_bytes_storage))))": {
        "encoding": "mapping",
        "key": "t_bytes32",
        "label": "mapping(bytes32 => mapping(uint256 => mapping(bytes32 => mapping(uint16 => bytes))))",
        "numberOfBytes": "32",
        "value": "t_mapping(t_uint256,t_mapping(t_bytes32,t_mapping(t_uint16,t_bytes_storage)))"
      },
      "t_mapping(t_bytes32,t_mapping(t_uint256,t_mapping(t_bytes32,t_uint16)))": {
        "encoding": "mapping",
        "key": "t_bytes32",
        "label": "mapping(bytes32 => mapping(uint256 => mapping(bytes32 => uint16)))",
        "numberOfBytes": "32",
        "value": "t_mapping(t_uint256,t_mapping(t_bytes32,t_uint16))"
      },
      "t_mapping(t_bytes32,t_string_storage)": {
        "encoding": "mapping",
        "key": "t_bytes32",
        "label": "mapping(bytes32 => string)",
        "numberOfBytes": "32",
        "value": "t_string_storage"
      },
      "t_mapping(t_bytes32,t_struct(PublicKey)15265_storage)": {
        "encoding": "mapping",
        "key": "t_bytes32",
        "label": "mapping(bytes32 => struct PubkeyResolver.PublicKey)",
        "numberOfBytes": "32",
        "value": "t_struct(PublicKey)15265_storage"
      },
      "t_mapping(t_bytes32,t_uint16)": {
        "encoding": "mapping",
        "key": "t_bytes32",
        "label": "mapping(bytes32 => uint16)",
        "numberOfBytes": "32",
        "value": "t_uint16"
      },
      "t_mapping(t_bytes32,t_uint256)": {
        "encoding": "mapping",
        "key": "t_bytes32",
        "label": "mapping(bytes32 => uint256)",
        "numberOfBytes": "32",
        "value": "t_uint256"
      },
      "t_mapping(t_bytes4,t_address)": {
        "encoding": "mapping",
        "key": "t_bytes4",
        "label": "mapping(bytes4 => address)",
        "numberOfBytes": "32",
        "value": "t_address"
      },
      "t_mapping(t_string_memory_ptr,t_string_storage)": {
        "encoding": "mapping",
        "key": "t_string_memory_ptr",
        "label": "mapping(string => string)",
        "numberOfBytes": "32",
        "value": "t_string_storage"
      },
      "t_mapping(t_uint16,t_bytes_storage)": {
        "encoding": "mapping",
        "key": "t_uint16",
        "label": "mapping(uint16 => bytes)",
        "numberOfBytes": "32",
        "value": "t_bytes_storage"
      },
      "t_mapping(t_uint256,t_bytes_storage)": {
        "encoding": "mapping",
        "key": "t_uint256",
        "label": "mapping(uint256 => bytes)",
        "numberOfBytes": "32",
        "value": "t_bytes_storage"
      },
      "t_mapping(t_uint256,t_mapping(t_bytes32,t_mapping(t_uint16,t_bytes_storage)))": {
        "encoding": "mapping",
        "key": "t_uint256",
        "label": "mapping(uint256 => mapping(bytes32 => mapping(uint16 => bytes)))",
        "numberOfBytes": "32",
        "value": "t_mapping(t_bytes32,t_mapping(t_uint16,t_bytes_storage))"
      },
      "t_mapping(t_uint256,t_mapping(t_bytes32,t_uint16))": {
        "encoding": "mapping",
        "key": "t_uint256",
        "label": "mapping(uint256 => mapping(bytes32 => uint16))",
        "numberOfBytes": "32",
        "value": "t_mapping(t_bytes32,t_uint16)"
      },
      "t_string_memory_ptr": {
        "encoding": "bytes",
        "label": "string",
        "numberOfBytes": "32"
      },
      "t_string_storage": {
        "encoding": "bytes",
        "label": "string",
        "numberOfBytes": "32"
      },
      "t_struct(PublicKey)15265_storage": {
        "encoding": "inplace",
        "label": "struct PubkeyResolver.PublicKey",
        "members": [
          {
            "astId": 15262,
            "contract": "contracts/resolvers/OwnedResolver.sol:OwnedResolver",
            "label": "x",
            "offset": 0,
            "slot": "0",
            "type": "t_bytes32"
          },
          {
            "astId": 15264,
            "contract": "contracts/resolvers/OwnedResolver.sol:OwnedResolver",
            "label": "y",
            "offset": 0,
            "slot": "1",
            "type": "t_bytes32"
          }
        ],
        "numberOfBytes": "64"
      },
      "t_uint16": {
        "encoding": "inplace",
        "label": "uint16",
        "numberOfBytes": "2"
      },
      "t_uint256": {
        "encoding": "inplace",
        "label": "uint256",
        "numberOfBytes": "32"
      }
    }
  }
}