{
  "address": "0x1C332E63f266c27F7f55aF3dF8f3502603362cAB",
  "abi": [
    {
      "inputs": [
        {
          "internalType": "contract ENS",
          "name": "_ens",
          "type": "address"
        },
        {
          "internalType": "contract INameWrapper",
          "name": "wrapperAddress",
          "type": "address"
        }
      ],
      "stateMutability": "nonpayable",
      "type": "constructor"
    },
    {
      "anonymous": false,
      "inputs": [
        {
          "indexed": true,
          "internalType": "bytes32",
          "name": "node",
          "type": "bytes32"
        },
        {
          "indexed": true,
          "internalType": "uint256",
          "name": "contentType",
          "type": "uint256"
        }
      ],
      "name": "ABIChanged",
      "type": "event"
    },
    {
      "anonymous": false,
      "inputs": [
        {
          "indexed": true,
          "internalType": "bytes32",
          "name": "node",
          "type": "bytes32"
        },
        {
          "indexed": false,
          "internalType": "address",
          "name": "a",
          "type": "address"
        }
      ],
      "name": "AddrChanged",
      "type": "event"
    },
    {
      "anonymous": false,
      "inputs": [
        {
          "indexed": true,
          "internalType": "bytes32",
          "name": "node",
          "type": "bytes32"
        },
        {
          "indexed": false,
          "internalType": "uint256",
          "name": "coinType",
          "type": "uint256"
        },
        {
          "indexed": false,
          "internalType": "bytes",
          "name": "newAddress",
          "type": "bytes"
        }
      ],
      "name": "AddressChanged",
      "type": "event"
    },
    {
      "anonymous": false,
      "inputs": [
        {
          "indexed": true,
          "internalType": "address",
          "name": "owner",
          "type": "address"
        },
        {
          "indexed": true,
          "internalType": "address",
          "name": "operator",
          "type": "address"
        },
        {
          "indexed": false,
          "internalType": "bool",
          "name": "approved",
          "type": "bool"
        }
      ],
      "name": "ApprovalForAll",
      "type": "event"
    },
    {
      "anonymous": false,
      "inputs": [
        {
          "indexed": true,
          "internalType": "bytes32",
          "name": "node",
          "type": "bytes32"
        },
        {
          "indexed": false,
          "internalType": "bytes",
          "name": "hash",
          "type": "bytes"
        }
      ],
      "name": "ContenthashChanged",
      "type": "event"
    },
    {
      "anonymous": false,
      "inputs": [
        {
          "indexed": true,
          "internalType": "bytes32",
          "name": "node",
          "type": "bytes32"
        },
        {
          "indexed": false,
          "internalType": "bytes",
          "name": "name",
          "type": "bytes"
        },
        {
          "indexed": false,
          "internalType": "uint16",
          "name": "resource",
          "type": "uint16"
        },
        {
          "indexed": false,
          "internalType": "bytes",
          "name": "record",
          "type": "bytes"
        }
      ],
      "name": "DNSRecordChanged",
      "type": "event"
    },
    {
      "anonymous": false,
      "inputs": [
        {
          "indexed": true,
          "internalType": "bytes32",
          "name": "node",
          "type": "bytes32"
        },
        {
          "indexed": false,
          "internalType": "bytes",
          "name": "name",
          "type": "bytes"
        },
        {
          "indexed": false,
          "internalType": "uint16",
          "name": "resource",
          "type": "uint16"
        }
      ],
      "name": "DNSRecordDeleted",
      "type": "event"
    },
    {
      "anonymous": false,
      "inputs": [
        {
          "indexed": true,
          "internalType": "bytes32",
          "name": "node",
          "type": "bytes32"
        }
      ],
      "name": "DNSZoneCleared",
      "type": "event"
    },
    {
      "anonymous": false,
      "inputs": [
        {
          "indexed": true,
          "internalType": "bytes32",
          "name": "node",
          "type": "bytes32"
        },
        {
          "indexed": false,
          "internalType": "bytes",
          "name": "lastzonehash",
          "type": "bytes"
        },
        {
          "indexed": false,
          "internalType": "bytes",
          "name": "zonehash",
          "type": "bytes"
        }
      ],
      "name": "DNSZonehashChanged",
      "type": "event"
    },
    {
      "anonymous": false,
      "inputs": [
        {
          "indexed": true,
          "internalType": "bytes32",
          "name": "node",
          "type": "bytes32"
        },
        {
          "indexed": true,
          "internalType": "bytes4",
          "name": "interfaceID",
          "type": "bytes4"
        },
        {
          "indexed": false,
          "internalType": "address",
          "name": "implementer",
          "type": "address"
        }
      ],
      "name": "InterfaceChanged",
      "type": "event"
    },
    {
      "anonymous": false,
      "inputs": [
        {
          "indexed": true,
          "internalType": "bytes32",
          "name": "node",
          "type": "bytes32"
        },
        {
          "indexed": false,
          "internalType": "string",
          "name": "name",
          "type": "string"
        }
      ],
      "name": "NameChanged",
      "type": "event"
    },
    {
      "anonymous": false,
      "inputs": [
        {
          "indexed": true,
          "internalType": "bytes32",
          "name": "node",
          "type": "bytes32"
        },
        {
          "indexed": false,
          "internalType": "bytes32",
          "name": "x",
          "type": "bytes32"
        },
        {
          "indexed": false,
          "internalType": "bytes32",
          "name": "y",
          "type": "bytes32"
        }
      ],
      "name": "PubkeyChanged",
      "type": "event"
    },
    {
      "anonymous": false,
      "inputs": [
        {
          "indexed": true,
          "internalType": "bytes32",
          "name": "node",
          "type": "bytes32"
        },
        {
          "indexed": true,
          "internalType": "string",
          "name": "indexedKey",
          "type": "string"
        },
        {
          "indexed": false,
          "internalType": "string",
          "name": "key",
          "type": "string"
        }
      ],
      "name": "TextChanged",
      "type": "event"
    },
    {
      "inputs": [
        {
          "internalType": "bytes32",
          "name": "node",
          "type": "bytes32"
        },
        {
          "internalType": "uint256",
          "name": "contentTypes",
          "type": "uint256"
        }
      ],
      "name": "ABI",
      "outputs": [
        {
          "internalType": "uint256",
          "name": "",
          "type": "uint256"
        },
        {
          "internalType": "bytes",
          "name": "",
          "type": "bytes"
        }
      ],
      "stateMutability": "view",
      "type": "function"
    },
    {
      "inputs": [
        {
          "internalType": "bytes32",
          "name": "node",
          "type": "bytes32"
        }
      ],
      "name": "addr",
      "outputs": [
        {
          "internalType": "address payable",
          "name": "",
          "type": "address"
        }
      ],
      "stateMutability": "view",
      "type": "function"
    },
    {
      "inputs": [
        {
          "internalType": "bytes32",
          "name": "node",
          "type": "bytes32"
        },
        {
          "internalType": "uint256",
          "name": "coinType",
          "type": "uint256"
        }
      ],
      "name": "addr",
      "outputs": [
        {
          "internalType": "bytes",
          "name": "",
          "type": "bytes"
        }
      ],
      "stateMutability": "view",
      "type": "function"
    },
    {
      "inputs": [
        {
          "internalType": "bytes32",
          "name": "node",
          "type": "bytes32"
        }
      ],
      "name": "clearDNSZone",
      "outputs": [],
      "stateMutability": "nonpayable",
      "type": "function"
    },
    {
      "inputs": [
        {
          "internalType": "bytes32",
          "name": "node",
          "type": "bytes32"
        }
      ],
      "name": "contenthash",
      "outputs": [
        {
          "internalType": "bytes",
          "name": "",
          "type": "bytes"
        }
      ],
      "stateMutability": "view",
      "type": "function"
    },
    {
      "inputs": [
        {
          "internalType": "bytes32",
          "name": "node",
          "type": "bytes32"
        },
        {
          "internalType": "bytes32",
          "name": "name",
          "type": "bytes32"
        },
        {
          "internalType": "uint16",
          "name": "resource",
          "type": "uint16"
        }
      ],
      "name": "dnsRecord",
      "outputs": [
        {
          "internalType": "bytes",
          "name": "",
          "type": "bytes"
        }
      ],
      "stateMutability": "view",
      "type": "function"
    },
    {
      "inputs": [
        {
          "internalType": "bytes32",
          "name": "node",
          "type": "bytes32"
        },
        {
          "internalType": "bytes32",
          "name": "name",
          "type": "bytes32"
        }
      ],
      "name": "hasDNSRecords",
      "outputs": [
        {
          "internalType": "bool",
          "name": "",
          "type": "bool"
        }
      ],
      "stateMutability": "view",
      "type": "function"
    },
    {
      "inputs": [
        {
          "internalType": "bytes32",
          "name": "node",
          "type": "bytes32"
        },
        {
          "internalType": "bytes4",
          "name": "interfaceID",
          "type": "bytes4"
        }
      ],
      "name": "interfaceImplementer",
      "outputs": [
        {
          "internalType": "address",
          "name": "",
          "type": "address"
        }
      ],
      "stateMutability": "view",
      "type": "function"
    },
    {
      "inputs": [
        {
          "internalType": "address",
          "name": "account",
          "type": "address"
        },
        {
          "internalType": "address",
          "name": "operator",
          "type": "address"
        }
      ],
      "name": "isApprovedForAll",
      "outputs": [
        {
          "internalType": "bool",
          "name": "",
          "type": "bool"
        }
      ],
      "stateMutability": "view",
      "type": "function"
    },
    {
      "inputs": [
        {
          "internalType": "bytes[]",
          "name": "data",
          "type": "bytes[]"
        }
      ],
      "name": "multicall",
      "outputs": [
        {
          "internalType": "bytes[]",
          "name": "results",
          "type": "bytes[]"
        }
      ],
      "stateMutability": "nonpayable",
      "type": "function"
    },
    {
      "inputs": [
        {
          "internalType": "bytes32",
          "name": "node",
          "type": "bytes32"
        }
      ],
      "name": "name",
      "outputs": [
        {
          "internalType": "string",
          "name": "",
          "type": "string"
        }
      ],
      "stateMutability": "view",
      "type": "function"
    },
    {
      "inputs": [
        {
          "internalType": "bytes32",
          "name": "node",
          "type": "bytes32"
        }
      ],
      "name": "pubkey",
      "outputs": [
        {
          "internalType": "bytes32",
          "name": "x",
          "type": "bytes32"
        },
        {
          "internalType": "bytes32",
          "name": "y",
          "type": "bytes32"
        }
      ],
      "stateMutability": "view",
      "type": "function"
    },
    {
      "inputs": [
        {
          "internalType": "bytes32",
          "name": "node",
          "type": "bytes32"
        },
        {
          "internalType": "uint256",
          "name": "contentType",
          "type": "uint256"
        },
        {
          "internalType": "bytes",
          "name": "data",
          "type": "bytes"
        }
      ],
      "name": "setABI",
      "outputs": [],
      "stateMutability": "nonpayable",
      "type": "function"
    },
    {
      "inputs": [
        {
          "internalType": "bytes32",
          "name": "node",
          "type": "bytes32"
        },
        {
          "internalType": "uint256",
          "name": "coinType",
          "type": "uint256"
        },
        {
          "internalType": "bytes",
          "name": "a",
          "type": "bytes"
        }
      ],
      "name": "setAddr",
      "outputs": [],
      "stateMutability": "nonpayable",
      "type": "function"
    },
    {
      "inputs": [
        {
          "internalType": "bytes32",
          "name": "node",
          "type": "bytes32"
        },
        {
          "internalType": "address",
          "name": "a",
          "type": "address"
        }
      ],
      "name": "setAddr",
      "outputs": [],
      "stateMutability": "nonpayable",
      "type": "function"
    },
    {
      "inputs": [
        {
          "internalType": "address",
          "name": "operator",
          "type": "address"
        },
        {
          "internalType": "bool",
          "name": "approved",
          "type": "bool"
        }
      ],
      "name": "setApprovalForAll",
      "outputs": [],
      "stateMutability": "nonpayable",
      "type": "function"
    },
    {
      "inputs": [
        {
          "internalType": "bytes32",
          "name": "node",
          "type": "bytes32"
        },
        {
          "internalType": "bytes",
          "name": "hash",
          "type": "bytes"
        }
      ],
      "name": "setContenthash",
      "outputs": [],
      "stateMutability": "nonpayable",
      "type": "function"
    },
    {
      "inputs": [
        {
          "internalType": "bytes32",
          "name": "node",
          "type": "bytes32"
        },
        {
          "internalType": "bytes",
          "name": "data",
          "type": "bytes"
        }
      ],
      "name": "setDNSRecords",
      "outputs": [],
      "stateMutability": "nonpayable",
      "type": "function"
    },
    {
      "inputs": [
        {
          "internalType": "bytes32",
          "name": "node",
          "type": "bytes32"
        },
        {
          "internalType": "bytes4",
          "name": "interfaceID",
          "type": "bytes4"
        },
        {
          "internalType": "address",
          "name": "implementer",
          "type": "address"
        }
      ],
      "name": "setInterface",
      "outputs": [],
      "stateMutability": "nonpayable",
      "type": "function"
    },
    {
      "inputs": [
        {
          "internalType": "bytes32",
          "name": "node",
          "type": "bytes32"
        },
        {
          "internalType": "string",
          "name": "newName",
          "type": "string"
        }
      ],
      "name": "setName",
      "outputs": [],
      "stateMutability": "nonpayable",
      "type": "function"
    },
    {
      "inputs": [
        {
          "internalType": "bytes32",
          "name": "node",
          "type": "bytes32"
        },
        {
          "internalType": "bytes32",
          "name": "x",
          "type": "bytes32"
        },
        {
          "internalType": "bytes32",
          "name": "y",
          "type": "bytes32"
        }
      ],
      "name": "setPubkey",
      "outputs": [],
      "stateMutability": "nonpayable",
      "type": "function"
    },
    {
      "inputs": [
        {
          "internalType": "bytes32",
          "name": "node",
          "type": "bytes32"
        },
        {
          "internalType": "string",
          "name": "key",
          "type": "string"
        },
        {
          "internalType": "string",
          "name": "value",
          "type": "string"
        }
      ],
      "name": "setText",
      "outputs": [],
      "stateMutability": "nonpayable",
      "type": "function"
    },
    {
      "inputs": [
        {
          "internalType": "bytes32",
          "name": "node",
          "type": "bytes32"
        },
        {
          "internalType": "bytes",
          "name": "hash",
          "type": "bytes"
        }
      ],
      "name": "setZonehash",
      "outputs": [],
      "stateMutability": "nonpayable",
      "type": "function"
    },
    {
      "inputs": [
        {
          "internalType": "bytes4",
          "name": "interfaceID",
          "type": "bytes4"
        }
      ],
      "name": "supportsInterface",
      "outputs": [
        {
          "internalType": "bool",
          "name": "",
          "type": "bool"
        }
      ],
      "stateMutability": "pure",
      "type": "function"
    },
    {
      "inputs": [
        {
          "internalType": "bytes32",
          "name": "node",
          "type": "bytes32"
        },
        {
          "internalType": "string",
          "name": "key",
          "type": "string"
        }
      ],
      "name": "text",
      "outputs": [
        {
          "internalType": "string",
          "name": "",
          "type": "string"
        }
      ],
      "stateMutability": "view",
      "type": "function"
    },
    {
      "inputs": [
        {
          "internalType": "bytes32",
          "name": "node",
          "type": "bytes32"
        }
      ],
      "name": "zonehash",
      "outputs": [
        {
          "internalType": "bytes",
          "name": "",
          "type": "bytes"
        }
      ],
      "stateMutability": "view",
      "type": "function"
    }
  ],
  "transactionHash": "0xe9c710330f1c68089050175b2ce3e07b2212ab9681ee2c848cac98a669a4d2b5",
  "args": [
    "0x86C77227C9cC90B6C7c221b6356EF749d460011A",
    "0x0000000000000000000000000000000000000000"
  ],
  "solcInputHash": "749be1ed3fab0e88f5d937191903a6e9",
  "bytecode": "0x60806040523480156200001157600080fd5b5060405162002e7c38038062002e7c833981016040819052620000349162000066565b600b80546001600160a01b039384166001600160a01b031991821617909155600c8054929093169116179055620000bd565b6000806040838503121562000079578182fd5b82516200008681620000a4565b60208401519092506200009981620000a4565b809150509250929050565b6001600160a01b0381168114620000ba57600080fd5b50565b612daf80620000cd6000396000f3fe608060405234801561001057600080fd5b50600436106101ae5760003560e01c806377372213116100ee578063bc1c58d111610097578063d5fa2b0011610071578063d5fa2b0014610410578063e59d895d14610423578063e985e9c514610436578063f1cb7e061461047f57600080fd5b8063bc1c58d1146103ad578063c8690233146103c0578063ce3decdc146103fd57600080fd5b8063a8fa5682116100c8578063a8fa568214610367578063ac9650d81461037a578063ad5780af1461039a57600080fd5b8063773722131461032e5780638b95dd7114610341578063a22cb4651461035457600080fd5b8063304e6ade1161015b57806359d1d43c1161013557806359d1d43c146102d55780635c98042b146102f5578063623195b014610308578063691f34311461031b57600080fd5b8063304e6ade1461026f5780633b3b57de146102825780634cbf6ba41461029557600080fd5b8063124a319c1161018c578063124a319c146102035780632203ab561461023b57806329cd62ea1461025c57600080fd5b806301ffc9a7146101b35780630af179d7146101db57806310f13a8c146101f0575b600080fd5b6101c66101c1366004612930565b610492565b60405190151581526020015b60405180910390f35b6101ee6101e9366004612741565b6104ee565b005b6101ee6101fe36600461278b565b6106d9565b6102166102113660046126e2565b610786565b60405173ffffffffffffffffffffffffffffffffffffffff90911681526020016101d2565b61024e610249366004612658565b610b51565b6040516101d2929190612b33565b6101ee61026a366004612679565b610c6c565b6101ee61027d366004612741565b610cec565b61021661029036600461261c565b610d4b565b6101c66102a3366004612658565b600091825260066020908152604080842060048352818520548552825280842092845291905290205461ffff16151590565b6102e86102e3366004612741565b610d7e565b6040516101d29190612a9b565b6102e861030336600461261c565b610e43565b6101ee610316366004612802565b610ee5565b6102e861032936600461261c565b610f66565b6101ee61033c366004612741565b610f83565b6101ee61034f366004612853565b610fe2565b6101ee61036236600461257b565b6110ba565b6102e86103753660046126a4565b6111fb565b61038d6103883660046125ac565b61123e565b6040516101d29190612a08565b6101ee6103a836600461261c565b6113ce565b6102e86103bb36600461261c565b61142f565b6103e86103ce36600461261c565b600090815260096020526040902080546001909101549091565b604080519283526020830191909152016101d2565b6101ee61040b366004612741565b61144c565b6101ee61041e366004612634565b611558565b6101ee61043136600461270d565b61157f565b6101c6610444366004612543565b73ffffffffffffffffffffffffffffffffffffffff9182166000908152600d6020908152604080832093909416825291909152205460ff1690565b6102e861048d366004612658565b611649565b60007fffffffff0000000000000000000000000000000000000000000000000000000082167fac9650d80000000000000000000000000000000000000000000000000000000014806104e857506104e8826116f7565b92915050565b826104f88161174d565b61050157600080fd5b60008060608060008061054e60008a8a8080601f01602080910402602001604051908101604052809392919081815260200183838082843760009201919091525092939250506119179050565b90505b805151602082015110156106745761ffff86166105b3578060400151955061057881611978565b93508360405160200161058b91906129ec565b6040516020818303038152906040528051906020012091506105ac81611999565b9250610666565b60006105be82611978565b9050816040015161ffff168761ffff161415806105e257506105e085826119b5565b155b156106645761063d8b86898d8d8080601f016020809104026020016040519081016040528093929190818152602001838380828437600092019190915250505060208801518c9150610635908290612bc7565b8a51156119d3565b81604001519650816020015195508094508480519060200120925061066182611999565b93505b505b61066f81611c15565b610551565b508251156106ce576106ce8984878b8b8080601f0160208091040260200160405190810160405280939291908181526020018383808284376000920191909152508b92506106c691508290508e612bc7565b8851156119d3565b505050505050505050565b846106e38161174d565b6106ec57600080fd5b8282600a600089815260200190815260200160002087876040516107119291906129dc565b90815260405190819003602001902061072b92909161234a565b50848460405161073c9291906129dc565b6040518091039020867fd8c9334b1a9c2f9da342a0a2b32629c1a229b6445dad78947f674b44444a75508787604051610776929190612a87565b60405180910390a3505050505050565b60008281526007602090815260408083207fffffffff000000000000000000000000000000000000000000000000000000008516845290915281205473ffffffffffffffffffffffffffffffffffffffff1680156107e55790506104e8565b60006107f085610d4b565b905073ffffffffffffffffffffffffffffffffffffffff8116610818576000925050506104e8565b6040517f01ffc9a7000000000000000000000000000000000000000000000000000000006024820152600090819073ffffffffffffffffffffffffffffffffffffffff841690604401604080517fffffffffffffffffffffffffffffffffffffffffffffffffffffffffffffffe08184030181529181526020820180517bffffffffffffffffffffffffffffffffffffffffffffffffffffffff167f01ffc9a700000000000000000000000000000000000000000000000000000000179052516108e291906129ec565b600060405180830381855afa9150503d806000811461091d576040519150601f19603f3d011682016040523d82523d6000602084013e610922565b606091505b5091509150811580610935575060208151105b8061099e575080601f81518110610975577f4e487b7100000000000000000000000000000000000000000000000000000000600052603260045260246000fd5b01602001517fff0000000000000000000000000000000000000000000000000000000000000016155b156109b05760009450505050506104e8565b6040517fffffffff000000000000000000000000000000000000000000000000000000008716602482015273ffffffffffffffffffffffffffffffffffffffff841690604401604080517fffffffffffffffffffffffffffffffffffffffffffffffffffffffffffffffe08184030181529181526020820180517bffffffffffffffffffffffffffffffffffffffffffffffffffffffff167f01ffc9a70000000000000000000000000000000000000000000000000000000017905251610a7791906129ec565b600060405180830381855afa9150503d8060008114610ab2576040519150601f19603f3d011682016040523d82523d6000602084013e610ab7565b606091505b509092509050811580610acb575060208151105b80610b34575080601f81518110610b0b577f4e487b7100000000000000000000000000000000000000000000000000000000600052603260045260246000fd5b01602001517fff0000000000000000000000000000000000000000000000000000000000000016155b15610b465760009450505050506104e8565b509095945050505050565b600082815260208190526040812060609060015b848111610c4c5780851615801590610b95575060008181526020839052604081208054610b9190612c4a565b9050115b15610c445780826000838152602001908152602001600020808054610bb990612c4a565b80601f0160208091040260200160405190810160405280929190818152602001828054610be590612c4a565b8015610c325780601f10610c0757610100808354040283529160200191610c32565b820191906000526020600020905b815481529060010190602001808311610c1557829003601f168201915b50505050509050935093505050610c65565b60011b610b65565b5060006040518060200160405280600081525092509250505b9250929050565b82610c768161174d565b610c7f57600080fd5b60408051808201825284815260208082018581526000888152600983528490209251835551600190920191909155815185815290810184905285917f1d6f5e03d3f63eb58751986629a5439baee5079ff04f345becb66e23eb154e4691015b60405180910390a250505050565b82610cf68161174d565b610cff57600080fd5b6000848152600260205260409020610d1890848461234a565b50837fe379c1624ed7e714cc0937528a32359d69d5281337765313dba4e081b72d75788484604051610cde929190612a87565b600080610d5983603c611649565b9050805160001415610d6e5750600092915050565b610d7781611cfd565b9392505050565b6060600a60008581526020019081526020016000208383604051610da39291906129dc565b90815260200160405180910390208054610dbc90612c4a565b80601f0160208091040260200160405190810160405280929190818152602001828054610de890612c4a565b8015610e355780601f10610e0a57610100808354040283529160200191610e35565b820191906000526020600020905b815481529060010190602001808311610e1857829003601f168201915b505050505090509392505050565b6000818152600360205260409020805460609190610e6090612c4a565b80601f0160208091040260200160405190810160405280929190818152602001828054610e8c90612c4a565b8015610ed95780601f10610eae57610100808354040283529160200191610ed9565b820191906000526020600020905b815481529060010190602001808311610ebc57829003601f168201915b50505050509050919050565b83610eef8161174d565b610ef857600080fd5b83610f04600182612bc7565b1615610f0f57600080fd5b6000858152602081815260408083208784529091529020610f3190848461234a565b50604051849086907faa121bbeef5f32f5961a2a28966e769023910fc9479059ee3495d4c1a696efe390600090a35050505050565b6000818152600860205260409020805460609190610e6090612c4a565b82610f8d8161174d565b610f9657600080fd5b6000848152600860205260409020610faf90848461234a565b50837fb7d29e911041e8d9b843369e890bcb72c9388692ba48b65ac54e7214c4c348f78484604051610cde929190612a87565b82610fec8161174d565b610ff557600080fd5b837f65412581168e88a1e60c6459d7f44ae83ad0832e670826c05a4e2476b57af7528484604051611027929190612b33565b60405180910390a2603c83141561108c57837f52d7d861f09ab3d26239d492e8968629f95e9e318cf0b73bfddc441522a15fd261106384611cfd565b60405173ffffffffffffffffffffffffffffffffffffffff909116815260200160405180910390a25b6000848152600160209081526040808320868452825290912083516110b3928501906123ec565b5050505050565b3373ffffffffffffffffffffffffffffffffffffffff83161415611164576040517f08c379a000000000000000000000000000000000000000000000000000000000815260206004820152602960248201527f455243313135353a2073657474696e6720617070726f76616c2073746174757360448201527f20666f722073656c660000000000000000000000000000000000000000000000606482015260840160405180910390fd5b336000818152600d6020908152604080832073ffffffffffffffffffffffffffffffffffffffff87168085529083529281902080547fffffffffffffffffffffffffffffffffffffffffffffffffffffffffffffff001686151590811790915590519081529192917f17307eab39ab6107e8899845ad3d59bd9653f200f220920489ca2b5937696c31910160405180910390a35050565b6000838152600560209081526040808320600483528184205484528252808320858452825280832061ffff851684529091529020805460609190610dbc90612c4a565b60608167ffffffffffffffff811115611280577f4e487b7100000000000000000000000000000000000000000000000000000000600052604160045260246000fd5b6040519080825280602002602001820160405280156112b357816020015b606081526020019060019003908161129e5790505b50905060005b828110156113c757600080308686858181106112fe577f4e487b7100000000000000000000000000000000000000000000000000000000600052603260045260246000fd5b90506020028101906113109190612b4c565b60405161131e9291906129dc565b600060405180830381855af49150503d8060008114611359576040519150601f19603f3d011682016040523d82523d6000602084013e61135e565b606091505b50915091508161136d57600080fd5b808484815181106113a7577f4e487b7100000000000000000000000000000000000000000000000000000000600052603260045260246000fd5b6020026020010181905250505080806113bf90612cc0565b9150506112b9565b5092915050565b806113d88161174d565b6113e157600080fd5b60008281526004602052604081208054916113fb83612cc0565b909155505060405182907fb757169b8492ca2f1c6619d9d76ce22803035c3b1d5f6930dffe7b127c1a198390600090a25050565b6000818152600260205260409020805460609190610e6090612c4a565b826114568161174d565b61145f57600080fd5b6000848152600360205260408120805461147890612c4a565b80601f01602080910402602001604051908101604052809291908181526020018280546114a490612c4a565b80156114f15780601f106114c6576101008083540402835291602001916114f1565b820191906000526020600020905b8154815290600101906020018083116114d457829003601f168201915b50505060008881526003602052604090209293506115149291508690508561234a565b50847f8f15ed4b723ef428f250961da8315675b507046737e19319fc1a4d81bfe87f8582868660405161154993929190612aae565b60405180910390a25050505050565b816115628161174d565b61156b57600080fd5b61157a83603c61034f85611d25565b505050565b826115898161174d565b61159257600080fd5b60008481526007602090815260408083207fffffffff0000000000000000000000000000000000000000000000000000000087168085529083529281902080547fffffffffffffffffffffffff00000000000000000000000000000000000000001673ffffffffffffffffffffffffffffffffffffffff8716908117909155905190815286917f7c69f06bea0bdef565b709e93a147836b0063ba2dd89f02d0b7e8d931e6a6daa910160405180910390a350505050565b6000828152600160209081526040808320848452909152902080546060919061167190612c4a565b80601f016020809104026020016040519081016040528092919081815260200182805461169d90612c4a565b80156116ea5780601f106116bf576101008083540402835291602001916116ea565b820191906000526020600020905b8154815290600101906020018083116116cd57829003601f168201915b5050505050905092915050565b60007fffffffff0000000000000000000000000000000000000000000000000000000082167f59d1d43c0000000000000000000000000000000000000000000000000000000014806104e857506104e882611d5e565b600b546040517f02571be300000000000000000000000000000000000000000000000000000000815260048101839052600091829173ffffffffffffffffffffffffffffffffffffffff909116906302571be39060240160206040518083038186803b1580156117bc57600080fd5b505afa1580156117d0573d6000803e3d6000fd5b505050506040513d601f19601f820116820180604052508101906117f49190612527565b600c5490915073ffffffffffffffffffffffffffffffffffffffff808316911614156118bf57600c546040517f6352211e0000000000000000000000000000000000000000000000000000000081526004810185905273ffffffffffffffffffffffffffffffffffffffff90911690636352211e9060240160206040518083038186803b15801561188457600080fd5b505afa158015611898573d6000803e3d6000fd5b505050506040513d601f19601f820116820180604052508101906118bc9190612527565b90505b73ffffffffffffffffffffffffffffffffffffffff8116331480610d77575073ffffffffffffffffffffffffffffffffffffffff81166000908152600d6020908152604080832033845290915290205460ff16610d77565b6119656040518060e001604052806060815260200160008152602001600061ffff168152602001600061ffff168152602001600063ffffffff16815260200160008152602001600081525090565b82815260c081018290526104e881611c15565b602081015181516060916104e8916119909082611db4565b84519190611e3a565b60a081015160c08201516060916104e891611990908290612bc7565b600081518351148015610d775750610d778360008460008751611ed8565b600087815260046020908152604082205488519189019190912090916119fa878787611e3a565b90508315611b035760008a81526005602090815260408083208684528252808320858452825280832061ffff8c16845290915290208054611a3a90612c4a565b159050611a8e5760008a815260066020908152604080832086845282528083208584529091528120805461ffff1691611a7283612c0e565b91906101000a81548161ffff021916908361ffff160217905550505b60008a81526005602090815260408083208684528252808320858452825280832061ffff8c1684529091528120611ac491612460565b897f03528ed0c2a3ebc993b12ce3c16bb382f9c7d88ef7d8a1bf290eaf35955a12078a8a604051611af6929190612ade565b60405180910390a2611c09565b60008a81526005602090815260408083208684528252808320858452825280832061ffff8c16845290915290208054611b3b90612c4a565b15159050611b905760008a815260066020908152604080832086845282528083208584529091528120805461ffff1691611b7483612c9e565b91906101000a81548161ffff021916908361ffff160217905550505b60008a81526005602090815260408083208684528252808320858452825280832061ffff8c16845282529091208251611bcb928401906123ec565b50897f52a608b3303a48862d07a73d82fa221318c0027fbbcfb1b2329bface3f19ff2b8a8a84604051611c0093929190612b04565b60405180910390a25b50505050505050505050565b60c08101516020820181905281515111611c2c5750565b6000611c4082600001518360200151611db4565b8260200151611c4f9190612baf565b8251909150611c5e9082611efb565b61ffff166040830152611c72600282612baf565b8251909150611c819082611efb565b61ffff166060830152611c95600282612baf565b8251909150611ca49082611f23565b63ffffffff166080830152611cba600482612baf565b8251909150600090611ccc9083611efb565b61ffff169050611cdd600283612baf565b60a084018190529150611cf08183612baf565b60c0909301929092525050565b60008151601414611d0d57600080fd5b50602001516c01000000000000000000000000900490565b6040805160148082528183019092526060916020820181803683375050506c010000000000000000000000009290920260208301525090565b60007fffffffff0000000000000000000000000000000000000000000000000000000082167fc86902330000000000000000000000000000000000000000000000000000000014806104e857506104e882611f4d565b6000815b83518110611def577f4e487b7100000000000000000000000000000000000000000000000000000000600052600160045260246000fd5b6000611dfb8583611fa3565b60ff169050611e0b816001612baf565b611e159083612baf565b915080611e225750611e28565b50611db8565b611e328382612bc7565b949350505050565b8251606090611e498385612baf565b1115611e5457600080fd5b60008267ffffffffffffffff811115611e96577f4e487b7100000000000000000000000000000000000000000000000000000000600052604160045260246000fd5b6040519080825280601f01601f191660200182016040528015611ec0576020820181803683370190505b50905060208082019086860101610b46828287611fee565b6000611ee5848484612062565b611ef0878785612062565b149695505050505050565b8151600090611f0b836002612baf565b1115611f1657600080fd5b50016002015161ffff1690565b8151600090611f33836004612baf565b1115611f3e57600080fd5b50016004015163ffffffff1690565b60007fffffffff0000000000000000000000000000000000000000000000000000000082167f691f34310000000000000000000000000000000000000000000000000000000014806104e857506104e882612086565b6000828281518110611fde577f4e487b7100000000000000000000000000000000000000000000000000000000600052603260045260246000fd5b016020015160f81c905092915050565b602081106120265781518352612005602084612baf565b9250612012602083612baf565b915061201f602082612bc7565b9050611fee565b905182516020929092036101000a7fffffffffffffffffffffffffffffffffffffffffffffffffffffffffffffffff0180199091169116179052565b82516000906120718385612baf565b111561207c57600080fd5b5091016020012090565b60007fffffffff0000000000000000000000000000000000000000000000000000000082167f124a319c0000000000000000000000000000000000000000000000000000000014806104e857506104e88260007fffffffff0000000000000000000000000000000000000000000000000000000082167fa8fa568200000000000000000000000000000000000000000000000000000000148061216a57507fffffffff0000000000000000000000000000000000000000000000000000000082167f5c98042b00000000000000000000000000000000000000000000000000000000145b806104e857506104e88260007fffffffff0000000000000000000000000000000000000000000000000000000082167fbc1c58d10000000000000000000000000000000000000000000000000000000014806104e857506104e88260007fffffffff0000000000000000000000000000000000000000000000000000000082167f3b3b57de00000000000000000000000000000000000000000000000000000000148061225857507fffffffff0000000000000000000000000000000000000000000000000000000082167ff1cb7e0600000000000000000000000000000000000000000000000000000000145b806104e857506104e88260007fffffffff0000000000000000000000000000000000000000000000000000000082167f2203ab560000000000000000000000000000000000000000000000000000000014806104e857506104e88260007fffffffff0000000000000000000000000000000000000000000000000000000082167fac9650d80000000000000000000000000000000000000000000000000000000014806104e857507f01ffc9a7000000000000000000000000000000000000000000000000000000007fffffffff000000000000000000000000000000000000000000000000000000008316146104e8565b82805461235690612c4a565b90600052602060002090601f01602090048101928261237857600085556123dc565b82601f106123af578280017fffffffffffffffffffffffffffffffffffffffffffffffffffffffffffffff008235161785556123dc565b828001600101855582156123dc579182015b828111156123dc5782358255916020019190600101906123c1565b506123e892915061249d565b5090565b8280546123f890612c4a565b90600052602060002090601f01602090048101928261241a57600085556123dc565b82601f1061243357805160ff19168380011785556123dc565b828001600101855582156123dc579182015b828111156123dc578251825591602001919060010190612445565b50805461246c90612c4a565b6000825580601f1061247c575050565b601f01602090049060005260206000209081019061249a919061249d565b50565b5b808211156123e8576000815560010161249e565b80357fffffffff00000000000000000000000000000000000000000000000000000000811681146124e257600080fd5b919050565b60008083601f8401126124f8578182fd5b50813567ffffffffffffffff81111561250f578182fd5b602083019150836020828501011115610c6557600080fd5b600060208284031215612538578081fd5b8151610d7781612d57565b60008060408385031215612555578081fd5b823561256081612d57565b9150602083013561257081612d57565b809150509250929050565b6000806040838503121561258d578182fd5b823561259881612d57565b915060208301358015158114612570578182fd5b600080602083850312156125be578182fd5b823567ffffffffffffffff808211156125d5578384fd5b818501915085601f8301126125e8578384fd5b8135818111156125f6578485fd5b8660208260051b850101111561260a578485fd5b60209290920196919550909350505050565b60006020828403121561262d578081fd5b5035919050565b60008060408385031215612646578182fd5b82359150602083013561257081612d57565b6000806040838503121561266a578182fd5b50508035926020909101359150565b60008060006060848603121561268d578081fd5b505081359360208301359350604090920135919050565b6000806000606084860312156126b8578283fd5b8335925060208401359150604084013561ffff811681146126d7578182fd5b809150509250925092565b600080604083850312156126f4578182fd5b82359150612704602084016124b2565b90509250929050565b600080600060608486031215612721578283fd5b83359250612731602085016124b2565b915060408401356126d781612d57565b600080600060408486031215612755578081fd5b83359250602084013567ffffffffffffffff811115612772578182fd5b61277e868287016124e7565b9497909650939450505050565b6000806000806000606086880312156127a2578283fd5b85359450602086013567ffffffffffffffff808211156127c0578485fd5b6127cc89838a016124e7565b909650945060408801359150808211156127e4578283fd5b506127f1888289016124e7565b969995985093965092949392505050565b60008060008060608587031215612817578182fd5b8435935060208501359250604085013567ffffffffffffffff81111561283b578283fd5b612847878288016124e7565b95989497509550505050565b600080600060608486031215612867578081fd5b8335925060208401359150604084013567ffffffffffffffff8082111561288c578283fd5b818601915086601f83011261289f578283fd5b8135818111156128b1576128b1612d28565b604051601f82017fffffffffffffffffffffffffffffffffffffffffffffffffffffffffffffffe0908116603f011681019083821181831017156128f7576128f7612d28565b8160405282815289602084870101111561290f578586fd5b82602086016020830137856020848301015280955050505050509250925092565b600060208284031215612941578081fd5b610d77826124b2565b81835281816020850137506000806020838501015260207fffffffffffffffffffffffffffffffffffffffffffffffffffffffffffffffe0601f840116840101905092915050565b600081518084526129aa816020860160208601612bde565b601f017fffffffffffffffffffffffffffffffffffffffffffffffffffffffffffffffe0169290920160200192915050565b8183823760009101908152919050565b600082516129fe818460208701612bde565b9190910192915050565b6000602080830181845280855180835260408601915060408160051b8701019250838701855b82811015612a7a577fffffffffffffffffffffffffffffffffffffffffffffffffffffffffffffffc0888603018452612a68858351612992565b94509285019290850190600101612a2e565b5092979650505050505050565b602081526000611e3260208301848661294a565b602081526000610d776020830184612992565b604081526000612ac16040830186612992565b8281036020840152612ad481858761294a565b9695505050505050565b604081526000612af16040830185612992565b905061ffff831660208301529392505050565b606081526000612b176060830186612992565b61ffff851660208401528281036040840152612ad48185612992565b828152604060208201526000611e326040830184612992565b60008083357fffffffffffffffffffffffffffffffffffffffffffffffffffffffffffffffe1843603018112612b80578283fd5b83018035915067ffffffffffffffff821115612b9a578283fd5b602001915036819003821315610c6557600080fd5b60008219821115612bc257612bc2612cf9565b500190565b600082821015612bd957612bd9612cf9565b500390565b60005b83811015612bf9578181015183820152602001612be1565b83811115612c08576000848401525b50505050565b600061ffff821680612c2257612c22612cf9565b7fffffffffffffffffffffffffffffffffffffffffffffffffffffffffffffffff0192915050565b600181811c90821680612c5e57607f821691505b60208210811415612c98577f4e487b7100000000000000000000000000000000000000000000000000000000600052602260045260246000fd5b50919050565b600061ffff80831681811415612cb657612cb6612cf9565b6001019392505050565b60007fffffffffffffffffffffffffffffffffffffffffffffffffffffffffffffffff821415612cf257612cf2612cf9565b5060010190565b7f4e487b7100000000000000000000000000000000000000000000000000000000600052601160045260246000fd5b7f4e487b7100000000000000000000000000000000000000000000000000000000600052604160045260246000fd5b73ffffffffffffffffffffffffffffffffffffffff8116811461249a57600080fdfea264697066735822122044cfdfc873bf54210de54f55435a66d60b683c61de3e144ab751160faea7e4cc64736f6c63430008040033",
  "devdoc": {
    "kind": "dev",
    "methods": {
      "ABI(bytes32,uint256)": {
        "params": {
          "contentTypes": "A bitwise OR of the ABI formats accepted by the caller.",
          "node": "The ENS node to query"
        },
        "returns": {
          "_0": "contentType The content type of the return value",
          "_1": "data The ABI data"
        }
      },
      "addr(bytes32)": {
        "params": {
          "node": "The ENS node to query."
        },
        "returns": {
          "_0": "The associated address."
        }
      },
      "clearDNSZone(bytes32)": {
        "params": {
          "node": "the namehash of the node for which to clear the zone"
        }
      },
      "contenthash(bytes32)": {
        "params": {
          "node": "The ENS node to query."
        },
        "returns": {
          "_0": "The associated contenthash."
        }
      },
      "dnsRecord(bytes32,bytes32,uint16)": {
        "params": {
          "name": "the keccak-256 hash of the fully-qualified name for which to fetch the record",
          "node": "the namehash of the node for which to fetch the record",
          "resource": "the ID of the resource as per https://en.wikipedia.org/wiki/List_of_DNS_record_types"
        },
        "returns": {
          "_0": "the DNS record in wire format if present, otherwise empty"
        }
      },
      "hasDNSRecords(bytes32,bytes32)": {
        "params": {
          "name": "the namehash of the node for which to check the records",
          "node": "the namehash of the node for which to check the records"
        }
      },
      "interfaceImplementer(bytes32,bytes4)": {
        "params": {
          "interfaceID": "The EIP 165 interface ID to check for.",
          "node": "The ENS node to query."
        },
        "returns": {
          "_0": "The address that implements this interface, or 0 if the interface is unsupported."
        }
      },
      "isApprovedForAll(address,address)": {
        "details": "See {IERC1155-isApprovedForAll}."
      },
      "name(bytes32)": {
        "params": {
          "node": "The ENS node to query."
        },
        "returns": {
          "_0": "The associated name."
        }
      },
      "pubkey(bytes32)": {
        "params": {
          "node": "The ENS node to query"
        },
        "returns": {
          "x": "The X coordinate of the curve point for the public key.",
          "y": "The Y coordinate of the curve point for the public key."
        }
      },
      "setABI(bytes32,uint256,bytes)": {
        "params": {
          "contentType": "The content type of the ABI",
          "data": "The ABI data.",
          "node": "The node to update."
        }
      },
      "setAddr(bytes32,address)": {
        "params": {
          "a": "The address to set.",
          "node": "The node to update."
        }
      },
      "setApprovalForAll(address,bool)": {
        "details": "See {IERC1155-setApprovalForAll}."
      },
      "setContenthash(bytes32,bytes)": {
        "params": {
          "hash": "The contenthash to set",
          "node": "The node to update."
        }
      },
      "setDNSRecords(bytes32,bytes)": {
        "params": {
          "data": "the DNS wire format records to set",
          "node": "the namehash of the node for which to set the records"
        }
      },
      "setInterface(bytes32,bytes4,address)": {
        "params": {
          "implementer": "The address of a contract that implements this interface for this node.",
          "interfaceID": "The EIP 165 interface ID.",
          "node": "The node to update."
        }
      },
      "setName(bytes32,string)": {
        "params": {
          "node": "The node to update."
        }
      },
      "setPubkey(bytes32,bytes32,bytes32)": {
        "params": {
          "node": "The ENS node to query",
          "x": "the X coordinate of the curve point for the public key.",
          "y": "the Y coordinate of the curve point for the public key."
        }
      },
      "setText(bytes32,string,string)": {
        "params": {
          "key": "The key to set.",
          "node": "The node to update.",
          "value": "The text data value to set."
        }
      },
      "setZonehash(bytes32,bytes)": {
        "params": {
          "hash": "The zonehash to set",
          "node": "The node to update."
        }
      },
      "text(bytes32,string)": {
        "params": {
          "key": "The text data key to query.",
          "node": "The ENS node to query."
        },
        "returns": {
          "_0": "The associated text data."
        }
      },
      "zonehash(bytes32)": {
        "params": {
          "node": "The ENS node to query."
        },
        "returns": {
          "_0": "The associated contenthash."
        }
      }
    },
    "version": 1
  },
  "userdoc": {
    "kind": "user",
    "methods": {
      "ABI(bytes32,uint256)": {
        "notice": "Returns the ABI associated with an ENS node. Defined in EIP205."
      },
      "addr(bytes32)": {
        "notice": "Returns the address associated with an ENS node."
      },
      "clearDNSZone(bytes32)": {
        "notice": "Clear all information for a DNS zone."
      },
      "contenthash(bytes32)": {
        "notice": "Returns the contenthash associated with an ENS node."
      },
      "dnsRecord(bytes32,bytes32,uint16)": {
        "notice": "Obtain a DNS record."
      },
      "hasDNSRecords(bytes32,bytes32)": {
        "notice": "Check if a given node has records."
      },
      "interfaceImplementer(bytes32,bytes4)": {
        "notice": "Returns the address of a contract that implements the specified interface for this name. If an implementer has not been set for this interfaceID and name, the resolver will query the contract at `addr()`. If `addr()` is set, a contract exists at that address, and that contract implements EIP165 and returns `true` for the specified interfaceID, its address will be returned."
      },
      "name(bytes32)": {
        "notice": "Returns the name associated with an ENS node, for reverse records. Defined in EIP181."
      },
      "pubkey(bytes32)": {
        "notice": "Returns the SECP256k1 public key associated with an ENS node. Defined in EIP 619."
      },
      "setABI(bytes32,uint256,bytes)": {
        "notice": "Sets the ABI associated with an ENS node. Nodes may have one ABI of each content type. To remove an ABI, set it to the empty string."
      },
      "setAddr(bytes32,address)": {
        "notice": "Sets the address associated with an ENS node. May only be called by the owner of that node in the ENS registry."
      },
      "setContenthash(bytes32,bytes)": {
        "notice": "Sets the contenthash associated with an ENS node. May only be called by the owner of that node in the ENS registry."
      },
      "setDNSRecords(bytes32,bytes)": {
        "notice": "Set one or more DNS records.  Records are supplied in wire-format. Records with the same node/name/resource must be supplied one after the other to ensure the data is updated correctly. For example, if the data was supplied:     a.example.com IN A 1.2.3.4     a.example.com IN A 5.6.7.8     www.example.com IN CNAME a.example.com. then this would store the two A records for a.example.com correctly as a single RRSET, however if the data was supplied:     a.example.com IN A 1.2.3.4     www.example.com IN CNAME a.example.com.     a.example.com IN A 5.6.7.8 then this would store the first A record, the CNAME, then the second A record which would overwrite the first."
      },
      "setInterface(bytes32,bytes4,address)": {
        "notice": "Sets an interface associated with a name. Setting the address to 0 restores the default behaviour of querying the contract at `addr()` for interface support."
      },
      "setName(bytes32,string)": {
        "notice": "Sets the name associated with an ENS node, for reverse records. May only be called by the owner of that node in the ENS registry."
      },
      "setPubkey(bytes32,bytes32,bytes32)": {
        "notice": "Sets the SECP256k1 public key associated with an ENS node."
      },
      "setText(bytes32,string,string)": {
        "notice": "Sets the text data associated with an ENS node and key. May only be called by the owner of that node in the ENS registry."
      },
      "setZonehash(bytes32,bytes)": {
        "notice": "setZonehash sets the hash for the zone. May only be called by the owner of that node in the ENS registry."
      },
      "text(bytes32,string)": {
        "notice": "Returns the text data associated with an ENS node and key."
      },
      "zonehash(bytes32)": {
        "notice": "zonehash obtains the hash for the zone."
      }
    },
    "notice": "A simple resolver anyone can use; only allows the owner of a node to set its address.",
    "version": 1
  },
  "storageLayout": {
    "storage": [
      {
        "astId": 13917,
        "contract": "contracts/resolvers/PublicResolver.sol:PublicResolver",
        "label": "abis",
        "offset": 0,
        "slot": "0",
        "type": "t_mapping(t_bytes32,t_mapping(t_uint256,t_bytes_storage))"
      },
      {
        "astId": 14061,
        "contract": "contracts/resolvers/PublicResolver.sol:PublicResolver",
        "label": "_addresses",
        "offset": 0,
        "slot": "1",
        "type": "t_mapping(t_bytes32,t_mapping(t_uint256,t_bytes_storage))"
      },
      {
        "astId": 14242,
        "contract": "contracts/resolvers/PublicResolver.sol:PublicResolver",
        "label": "hashes",
        "offset": 0,
        "slot": "2",
        "type": "t_mapping(t_bytes32,t_bytes_storage)"
      },
      {
        "astId": 14322,
        "contract": "contracts/resolvers/PublicResolver.sol:PublicResolver",
        "label": "zonehashes",
        "offset": 0,
        "slot": "3",
        "type": "t_mapping(t_bytes32,t_bytes_storage)"
      },
      {
        "astId": 14326,
        "contract": "contracts/resolvers/PublicResolver.sol:PublicResolver",
        "label": "versions",
        "offset": 0,
        "slot": "4",
        "type": "t_mapping(t_bytes32,t_uint256)"
      },
      {
        "astId": 14336,
        "contract": "contracts/resolvers/PublicResolver.sol:PublicResolver",
        "label": "records",
        "offset": 0,
        "slot": "5",
        "type": "t_mapping(t_bytes32,t_mapping(t_uint256,t_mapping(t_bytes32,t_mapping(t_uint16,t_bytes_storage))))"
      },
      {
        "astId": 14344,
        "contract": "contracts/resolvers/PublicResolver.sol:PublicResolver",
        "label": "nameEntriesCount",
        "offset": 0,
        "slot": "6",
        "type": "t_mapping(t_bytes32,t_mapping(t_uint256,t_mapping(t_bytes32,t_uint16)))"
      },
      {
        "astId": 15011,
        "contract": "contracts/resolvers/PublicResolver.sol:PublicResolver",
        "label": "interfaces",
        "offset": 0,
        "slot": "7",
        "type": "t_mapping(t_bytes32,t_mapping(t_bytes4,t_address))"
      },
      {
        "astId": 15193,
        "contract": "contracts/resolvers/PublicResolver.sol:PublicResolver",
        "label": "names",
        "offset": 0,
        "slot": "8",
        "type": "t_mapping(t_bytes32,t_string_storage)"
      },
      {
        "astId": 15270,
        "contract": "contracts/resolvers/PublicResolver.sol:PublicResolver",
        "label": "pubkeys",
        "offset": 0,
        "slot": "9",
        "type": "t_mapping(t_bytes32,t_struct(PublicKey)15265_storage)"
      },
      {
        "astId": 15357,
        "contract": "contracts/resolvers/PublicResolver.sol:PublicResolver",
        "label": "texts",
        "offset": 0,
        "slot": "10",
        "type": "t_mapping(t_bytes32,t_mapping(t_string_memory_ptr,t_string_storage))"
      },
      {
        "astId": 13541,
        "contract": "contracts/resolvers/PublicResolver.sol:PublicResolver",
        "label": "ens",
        "offset": 0,
        "slot": "11",
        "type": "t_contract(ENS)12109"
      },
      {
        "astId": 13544,
        "contract": "contracts/resolvers/PublicResolver.sol:PublicResolver",
        "label": "nameWrapper",
        "offset": 0,
        "slot": "12",
        "type": "t_contract(INameWrapper)13519"
      },
      {
        "astId": 13551,
        "contract": "contracts/resolvers/PublicResolver.sol:PublicResolver",
        "label": "_operatorApprovals",
        "offset": 0,
        "slot": "13",
        "type": "t_mapping(t_address,t_mapping(t_address,t_bool))"
      }
    ],
    "types": {
      "t_address": {
        "encoding": "inplace",
        "label": "address",
        "numberOfBytes": "20"
      },
      "t_bool": {
        "encoding": "inplace",
        "label": "bool",
        "numberOfBytes": "1"
      },
      "t_bytes32": {
        "encoding": "inplace",
        "label": "bytes32",
        "numberOfBytes": "32"
      },
      "t_bytes4": {
        "encoding": "inplace",
        "label": "bytes4",
        "numberOfBytes": "4"
      },
      "t_bytes_storage": {
        "encoding": "bytes",
        "label": "bytes",
        "numberOfBytes": "32"
      },
      "t_contract(ENS)12109": {
        "encoding": "inplace",
        "label": "contract ENS",
        "numberOfBytes": "20"
      },
      "t_contract(INameWrapper)13519": {
        "encoding": "inplace",
        "label": "contract INameWrapper",
        "numberOfBytes": "20"
      },
      "t_mapping(t_address,t_bool)": {
        "encoding": "mapping",
        "key": "t_address",
        "label": "mapping(address => bool)",
        "numberOfBytes": "32",
        "value": "t_bool"
      },
      "t_mapping(t_address,t_mapping(t_address,t_bool))": {
        "encoding": "mapping",
        "key": "t_address",
        "label": "mapping(address => mapping(address => bool))",
        "numberOfBytes": "32",
        "value": "t_mapping(t_address,t_bool)"
      },
      "t_mapping(t_bytes32,t_bytes_storage)": {
        "encoding": "mapping",
        "key": "t_bytes32",
        "label": "mapping(bytes32 => bytes)",
        "numberOfBytes": "32",
        "value": "t_bytes_storage"
      },
      "t_mapping(t_bytes32,t_mapping(t_bytes4,t_address))": {
        "encoding": "mapping",
        "key": "t_bytes32",
        "label": "mapping(bytes32 => mapping(bytes4 => address))",
        "numberOfBytes": "32",
        "value": "t_mapping(t_bytes4,t_address)"
      },
      "t_mapping(t_bytes32,t_mapping(t_string_memory_ptr,t_string_storage))": {
        "encoding": "mapping",
        "key": "t_bytes32",
        "label": "mapping(bytes32 => mapping(string => string))",
        "numberOfBytes": "32",
        "value": "t_mapping(t_string_memory_ptr,t_string_storage)"
      },
      "t_mapping(t_bytes32,t_mapping(t_uint16,t_bytes_storage))": {
        "encoding": "mapping",
        "key": "t_bytes32",
        "label": "mapping(bytes32 => mapping(uint16 => bytes))",
        "numberOfBytes": "32",
        "value": "t_mapping(t_uint16,t_bytes_storage)"
      },
      "t_mapping(t_bytes32,t_mapping(t_uint256,t_bytes_storage))": {
        "encoding": "mapping",
        "key": "t_bytes32",
        "label": "mapping(bytes32 => mapping(uint256 => bytes))",
        "numberOfBytes": "32",
        "value": "t_mapping(t_uint256,t_bytes_storage)"
      },
      "t_mapping(t_bytes32,t_mapping(t_uint256,t_mapping(t_bytes32,t_mapping(t_uint16,t_bytes_storage))))": {
        "encoding": "mapping",
        "key": "t_bytes32",
        "label": "mapping(bytes32 => mapping(uint256 => mapping(bytes32 => mapping(uint16 => bytes))))",
        "numberOfBytes": "32",
        "value": "t_mapping(t_uint256,t_mapping(t_bytes32,t_mapping(t_uint16,t_bytes_storage)))"
      },
      "t_mapping(t_bytes32,t_mapping(t_uint256,t_mapping(t_bytes32,t_uint16)))": {
        "encoding": "mapping",
        "key": "t_bytes32",
        "label": "mapping(bytes32 => mapping(uint256 => mapping(bytes32 => uint16)))",
        "numberOfBytes": "32",
        "value": "t_mapping(t_uint256,t_mapping(t_bytes32,t_uint16))"
      },
      "t_mapping(t_bytes32,t_string_storage)": {
        "encoding": "mapping",
        "key": "t_bytes32",
        "label": "mapping(bytes32 => string)",
        "numberOfBytes": "32",
        "value": "t_string_storage"
      },
      "t_mapping(t_bytes32,t_struct(PublicKey)15265_storage)": {
        "encoding": "mapping",
        "key": "t_bytes32",
        "label": "mapping(bytes32 => struct PubkeyResolver.PublicKey)",
        "numberOfBytes": "32",
        "value": "t_struct(PublicKey)15265_storage"
      },
      "t_mapping(t_bytes32,t_uint16)": {
        "encoding": "mapping",
        "key": "t_bytes32",
        "label": "mapping(bytes32 => uint16)",
        "numberOfBytes": "32",
        "value": "t_uint16"
      },
      "t_mapping(t_bytes32,t_uint256)": {
        "encoding": "mapping",
        "key": "t_bytes32",
        "label": "mapping(bytes32 => uint256)",
        "numberOfBytes": "32",
        "value": "t_uint256"
      },
      "t_mapping(t_bytes4,t_address)": {
        "encoding": "mapping",
        "key": "t_bytes4",
        "label": "mapping(bytes4 => address)",
        "numberOfBytes": "32",
        "value": "t_address"
      },
      "t_mapping(t_string_memory_ptr,t_string_storage)": {
        "encoding": "mapping",
        "key": "t_string_memory_ptr",
        "label": "mapping(string => string)",
        "numberOfBytes": "32",
        "value": "t_string_storage"
      },
      "t_mapping(t_uint16,t_bytes_storage)": {
        "encoding": "mapping",
        "key": "t_uint16",
        "label": "mapping(uint16 => bytes)",
        "numberOfBytes": "32",
        "value": "t_bytes_storage"
      },
      "t_mapping(t_uint256,t_bytes_storage)": {
        "encoding": "mapping",
        "key": "t_uint256",
        "label": "mapping(uint256 => bytes)",
        "numberOfBytes": "32",
        "value": "t_bytes_storage"
      },
      "t_mapping(t_uint256,t_mapping(t_bytes32,t_mapping(t_uint16,t_bytes_storage)))": {
        "encoding": "mapping",
        "key": "t_uint256",
        "label": "mapping(uint256 => mapping(bytes32 => mapping(uint16 => bytes)))",
        "numberOfBytes": "32",
        "value": "t_mapping(t_bytes32,t_mapping(t_uint16,t_bytes_storage))"
      },
      "t_mapping(t_uint256,t_mapping(t_bytes32,t_uint16))": {
        "encoding": "mapping",
        "key": "t_uint256",
        "label": "mapping(uint256 => mapping(bytes32 => uint16))",
        "numberOfBytes": "32",
        "value": "t_mapping(t_bytes32,t_uint16)"
      },
      "t_string_memory_ptr": {
        "encoding": "bytes",
        "label": "string",
        "numberOfBytes": "32"
      },
      "t_string_storage": {
        "encoding": "bytes",
        "label": "string",
        "numberOfBytes": "32"
      },
      "t_struct(PublicKey)15265_storage": {
        "encoding": "inplace",
        "label": "struct PubkeyResolver.PublicKey",
        "members": [
          {
            "astId": 15262,
            "contract": "contracts/resolvers/PublicResolver.sol:PublicResolver",
            "label": "x",
            "offset": 0,
            "slot": "0",
            "type": "t_bytes32"
          },
          {
            "astId": 15264,
            "contract": "contracts/resolvers/PublicResolver.sol:PublicResolver",
            "label": "y",
            "offset": 0,
            "slot": "1",
            "type": "t_bytes32"
          }
        ],
        "numberOfBytes": "64"
      },
      "t_uint16": {
        "encoding": "inplace",
        "label": "uint16",
        "numberOfBytes": "2"
      },
      "t_uint256": {
        "encoding": "inplace",
        "label": "uint256",
        "numberOfBytes": "32"
      }
    }
  }
}