{
  "address": "0x206340c328E88A45fC33BEf42129fafE9Ff9f980",
  "abi": [
    {
      "inputs": [
        {
          "internalType": "contract ENS",
          "name": "ensAddr",
          "type": "address"
        },
        {
          "internalType": "contract NameResolver",
          "name": "resolverAddr",
          "type": "address"
        }
      ],
      "stateMutability": "nonpayable",
      "type": "constructor"
    },
    {
      "anonymous": false,
      "inputs": [
        {
          "indexed": true,
          "internalType": "address",
          "name": "controller",
          "type": "address"
        },
        {
          "indexed": false,
          "internalType": "bool",
          "name": "enabled",
          "type": "bool"
        }
      ],
      "name": "ControllerChanged",
      "type": "event"
    },
    {
      "anonymous": false,
      "inputs": [
        {
          "indexed": true,
          "internalType": "address",
          "name": "previousOwner",
          "type": "address"
        },
        {
          "indexed": true,
          "internalType": "address",
          "name": "newOwner",
          "type": "address"
        }
      ],
      "name": "OwnershipTransferred",
      "type": "event"
    },
    {
      "anonymous": false,
      "inputs": [
        {
          "indexed": true,
          "internalType": "address",
          "name": "addr",
          "type": "address"
        },
        {
          "indexed": true,
          "internalType": "bytes32",
          "name": "node",
          "type": "bytes32"
        }
      ],
      "name": "ReverseClaimed",
      "type": "event"
    },
    {
      "inputs": [
        {
          "internalType": "address",
          "name": "owner",
          "type": "address"
        }
      ],
      "name": "claim",
      "outputs": [
        {
          "internalType": "bytes32",
          "name": "",
          "type": "bytes32"
        }
      ],
      "stateMutability": "nonpayable",
      "type": "function"
    },
    {
      "inputs": [
        {
          "internalType": "address",
          "name": "addr",
          "type": "address"
        },
        {
          "internalType": "address",
          "name": "owner",
          "type": "address"
        }
      ],
      "name": "claimForAddr",
      "outputs": [
        {
          "internalType": "bytes32",
          "name": "",
          "type": "bytes32"
        }
      ],
      "stateMutability": "nonpayable",
      "type": "function"
    },
    {
      "inputs": [
        {
          "internalType": "address",
          "name": "owner",
          "type": "address"
        },
        {
          "internalType": "address",
          "name": "resolver",
          "type": "address"
        }
      ],
      "name": "claimWithResolver",
      "outputs": [
        {
          "internalType": "bytes32",
          "name": "",
          "type": "bytes32"
        }
      ],
      "stateMutability": "nonpayable",
      "type": "function"
    },
    {
      "inputs": [
        {
          "internalType": "address",
          "name": "addr",
          "type": "address"
        },
        {
          "internalType": "address",
          "name": "owner",
          "type": "address"
        },
        {
          "internalType": "address",
          "name": "resolver",
          "type": "address"
        }
      ],
      "name": "claimWithResolverForAddr",
      "outputs": [
        {
          "internalType": "bytes32",
          "name": "",
          "type": "bytes32"
        }
      ],
      "stateMutability": "nonpayable",
      "type": "function"
    },
    {
      "inputs": [
        {
          "internalType": "address",
          "name": "",
          "type": "address"
        }
      ],
      "name": "controllers",
      "outputs": [
        {
          "internalType": "bool",
          "name": "",
          "type": "bool"
        }
      ],
      "stateMutability": "view",
      "type": "function"
    },
    {
      "inputs": [],
      "name": "defaultResolver",
      "outputs": [
        {
          "internalType": "contract NameResolver",
          "name": "",
          "type": "address"
        }
      ],
      "stateMutability": "view",
      "type": "function"
    },
    {
      "inputs": [],
      "name": "ens",
      "outputs": [
        {
          "internalType": "contract ENS",
          "name": "",
          "type": "address"
        }
      ],
      "stateMutability": "view",
      "type": "function"
    },
    {
      "inputs": [
        {
          "internalType": "address",
          "name": "addr",
          "type": "address"
        }
      ],
      "name": "node",
      "outputs": [
        {
          "internalType": "bytes32",
          "name": "",
          "type": "bytes32"
        }
      ],
      "stateMutability": "pure",
      "type": "function"
    },
    {
      "inputs": [],
      "name": "owner",
      "outputs": [
        {
          "internalType": "address",
          "name": "",
          "type": "address"
        }
      ],
      "stateMutability": "view",
      "type": "function"
    },
    {
      "inputs": [],
      "name": "renounceOwnership",
      "outputs": [],
      "stateMutability": "nonpayable",
      "type": "function"
    },
    {
      "inputs": [
        {
          "internalType": "address",
          "name": "controller",
          "type": "address"
        },
        {
          "internalType": "bool",
          "name": "enabled",
          "type": "bool"
        }
      ],
      "name": "setController",
      "outputs": [],
      "stateMutability": "nonpayable",
      "type": "function"
    },
    {
      "inputs": [
        {
          "internalType": "string",
          "name": "name",
          "type": "string"
        }
      ],
      "name": "setName",
      "outputs": [
        {
          "internalType": "bytes32",
          "name": "",
          "type": "bytes32"
        }
      ],
      "stateMutability": "nonpayable",
      "type": "function"
    },
    {
      "inputs": [
        {
          "internalType": "address",
          "name": "addr",
          "type": "address"
        },
        {
          "internalType": "address",
          "name": "owner",
          "type": "address"
        },
        {
          "internalType": "string",
          "name": "name",
          "type": "string"
        }
      ],
      "name": "setNameForAddr",
      "outputs": [
        {
          "internalType": "bytes32",
          "name": "",
          "type": "bytes32"
        }
      ],
      "stateMutability": "nonpayable",
      "type": "function"
    },
    {
      "inputs": [
        {
          "internalType": "address",
          "name": "newOwner",
          "type": "address"
        }
      ],
      "name": "transferOwnership",
      "outputs": [],
      "stateMutability": "nonpayable",
      "type": "function"
    }
  ],
  "transactionHash": "0x5565779cb6f946019ee7e4905b048f320855277c8f13634c5cada92b57bed0de",
  "args": [
    "0x86C77227C9cC90B6C7c221b6356EF749d460011A",
    "0x1C332E63f266c27F7f55aF3dF8f3502603362cAB"
  ],
  "solcInputHash": "749be1ed3fab0e88f5d937191903a6e9",
  "bytecode": "0x60806040523480156200001157600080fd5b50604051620016d9380380620016d983398101604081905262000034916200022a565b6200003f336200019b565b600280546001600160a01b038481166001600160a01b0319928316811790935560038054918516919092161790556040516302571be360e01b81527f91d1777781884d03a6757a803996e38de2a42967fb37eeaca72729271025a9e26004820152600091906302571be39060240160206040518083038186803b158015620000c657600080fd5b505afa158015620000db573d6000803e3d6000fd5b505050506040513d601f19601f82011682018060405250810190620001019190620001eb565b90506001600160a01b038116156200019257604051630f41a04d60e11b81523360048201526001600160a01b03821690631e83409a90602401602060405180830381600087803b1580156200015557600080fd5b505af11580156200016a573d6000803e3d6000fd5b505050506040513d601f19601f8201168201806040525081019062000190919062000211565b505b50505062000281565b600080546001600160a01b038381166001600160a01b0319831681178455604051919092169283917f8be0079c531659141344cd1fd0a4f28419497f9722a3daafe3b4186f6b6457e09190a35050565b600060208284031215620001fd578081fd5b81516200020a8162000268565b9392505050565b60006020828403121562000223578081fd5b5051919050565b600080604083850312156200023d578081fd5b82516200024a8162000268565b60208401519092506200025d8162000268565b809150509250929050565b6001600160a01b03811681146200027e57600080fd5b50565b61144880620002916000396000f3fe608060405234801561001057600080fd5b50600436106100ea5760003560e01c80638d9522b81161008c578063c47f002711610066578063c47f002714610201578063da8c229e14610214578063e0dba60f14610247578063f2fde38b1461025a57600080fd5b80638d9522b8146101bd5780638da5cb5b146101d0578063bffbe61c146101ee57600080fd5b80633f15457f116100c85780633f15457f1461013b5780634709bf4b14610180578063715018a614610193578063828eab0e1461019d57600080fd5b80630ccc4a7f146100ef5780630f5a5466146101155780631e83409a14610128575b600080fd5b6101026100fd3660046111fc565b61026d565b6040519081526020015b60405180910390f35b6101026101233660046111c4565b61042c565b61010261013636600461118c565b610440565b60025461015b9073ffffffffffffffffffffffffffffffffffffffff1681565b60405173ffffffffffffffffffffffffffffffffffffffff909116815260200161010c565b61010261018e3660046111c4565b610454565b61019b61060e565b005b60035461015b9073ffffffffffffffffffffffffffffffffffffffff1681565b6101026101cb366004611246565b610622565b60005473ffffffffffffffffffffffffffffffffffffffff1661015b565b6101026101fc36600461118c565b61097a565b61010261020f366004611307565b6109d5565b61023761022236600461118c565b60016020526000908152604090205460ff1681565b604051901515815260200161010c565b61019b6102553660046112a6565b610a92565b61019b61026836600461118c565b610b24565b60008373ffffffffffffffffffffffffffffffffffffffff81163314806102a357503360009081526001602052604090205460ff165b8061035257506002546040517fe985e9c500000000000000000000000000000000000000000000000000000000815273ffffffffffffffffffffffffffffffffffffffff83811660048301523360248301529091169063e985e9c59060440160206040518083038186803b15801561031a57600080fd5b505afa15801561032e573d6000803e3d6000fd5b505050506040513d601f19601f8201168201806040525081019061035291906112d3565b80610361575061036181610bdb565b610418576040517f08c379a000000000000000000000000000000000000000000000000000000000815260206004820152604960248201527f43616c6c6572206973206e6f74206120636f6e74726f6c6c6572206f7220617560448201527f74686f72697365642062792061646472657373206f722074686520616464726560648201527f737320697473656c660000000000000000000000000000000000000000000000608482015260a4015b60405180910390fd5b610423858585610c9b565b95945050505050565b6000610439338484610c9b565b9392505050565b600061044e33836000610c9b565b92915050565b60008273ffffffffffffffffffffffffffffffffffffffff811633148061048a57503360009081526001602052604090205460ff165b8061053957506002546040517fe985e9c500000000000000000000000000000000000000000000000000000000815273ffffffffffffffffffffffffffffffffffffffff83811660048301523360248301529091169063e985e9c59060440160206040518083038186803b15801561050157600080fd5b505afa158015610515573d6000803e3d6000fd5b505050506040513d601f19601f8201168201806040525081019061053991906112d3565b80610548575061054881610bdb565b6105fa576040517f08c379a000000000000000000000000000000000000000000000000000000000815260206004820152604960248201527f43616c6c6572206973206e6f74206120636f6e74726f6c6c6572206f7220617560448201527f74686f72697365642062792061646472657373206f722074686520616464726560648201527f737320697473656c660000000000000000000000000000000000000000000000608482015260a40161040f565b61060684846000610c9b565b949350505050565b610616610f35565b6106206000610fb6565b565b60008373ffffffffffffffffffffffffffffffffffffffff811633148061065857503360009081526001602052604090205460ff165b8061070757506002546040517fe985e9c500000000000000000000000000000000000000000000000000000000815273ffffffffffffffffffffffffffffffffffffffff83811660048301523360248301529091169063e985e9c59060440160206040518083038186803b1580156106cf57600080fd5b505afa1580156106e3573d6000803e3d6000fd5b505050506040513d601f19601f8201168201806040525081019061070791906112d3565b80610716575061071681610bdb565b6107c8576040517f08c379a000000000000000000000000000000000000000000000000000000000815260206004820152604960248201527f43616c6c6572206973206e6f74206120636f6e74726f6c6c6572206f7220617560448201527f74686f72697365642062792061646472657373206f722074686520616464726560648201527f737320697473656c660000000000000000000000000000000000000000000000608482015260a40161040f565b6003546000906107f1908790309073ffffffffffffffffffffffffffffffffffffffff16610c9b565b6003546040517f7737221300000000000000000000000000000000000000000000000000000000815291925073ffffffffffffffffffffffffffffffffffffffff169063773722139061084a908490889060040161133a565b600060405180830381600087803b15801561086457600080fd5b505af1158015610878573d6000803e3d6000fd5b505060025473ffffffffffffffffffffffffffffffffffffffff1691506306ab592390507f91d1777781884d03a6757a803996e38de2a42967fb37eeaca72729271025a9e26108c68961102b565b6040517fffffffff0000000000000000000000000000000000000000000000000000000060e085901b1681526004810192909252602482015273ffffffffffffffffffffffffffffffffffffffff88166044820152606401602060405180830381600087803b15801561093857600080fd5b505af115801561094c573d6000803e3d6000fd5b505050506040513d601f19601f8201168201806040525081019061097091906112ef565b5095945050505050565b60007f91d1777781884d03a6757a803996e38de2a42967fb37eeaca72729271025a9e26109a68361102b565b604080516020810193909352820152606001604051602081830303815290604052805190602001209050919050565b6003546000908190610a00903390309073ffffffffffffffffffffffffffffffffffffffff16610c9b565b6003546040517f7737221300000000000000000000000000000000000000000000000000000000815291925073ffffffffffffffffffffffffffffffffffffffff1690637737221390610a59908490879060040161133a565b600060405180830381600087803b158015610a7357600080fd5b505af1158015610a87573d6000803e3d6000fd5b509295945050505050565b610a9a610f35565b73ffffffffffffffffffffffffffffffffffffffff821660008181526001602090815260409182902080547fffffffffffffffffffffffffffffffffffffffffffffffffffffffffffffff001685151590811790915591519182527f4c97694570a07277810af7e5669ffd5f6a2d6b74b6e9a274b8b870fd5114cf87910160405180910390a25050565b610b2c610f35565b73ffffffffffffffffffffffffffffffffffffffff8116610bcf576040517f08c379a000000000000000000000000000000000000000000000000000000000815260206004820152602660248201527f4f776e61626c653a206e6577206f776e657220697320746865207a65726f206160448201527f6464726573730000000000000000000000000000000000000000000000000000606482015260840161040f565b610bd881610fb6565b50565b60008173ffffffffffffffffffffffffffffffffffffffff16638da5cb5b6040518163ffffffff1660e01b815260040160206040518083038186803b158015610c2357600080fd5b505afa925050508015610c71575060408051601f3d9081017fffffffffffffffffffffffffffffffffffffffffffffffffffffffffffffffe0168201909252610c6e918101906111a8565b60015b610c7d57506000919050565b73ffffffffffffffffffffffffffffffffffffffff16331492915050565b600080610ca78561102b565b604080517f91d1777781884d03a6757a803996e38de2a42967fb37eeaca72729271025a9e26020820152908101829052909150600090606001604080518083037fffffffffffffffffffffffffffffffffffffffffffffffffffffffffffffffe00181529082905280516020909101206002547f0178b8bf0000000000000000000000000000000000000000000000000000000083526004830182905290925060009173ffffffffffffffffffffffffffffffffffffffff90911690630178b8bf9060240160206040518083038186803b158015610d8457600080fd5b505afa158015610d98573d6000803e3d6000fd5b505050506040513d601f19601f82011682018060405250810190610dbc91906111a8565b9050600073ffffffffffffffffffffffffffffffffffffffff861615801590610e1157508173ffffffffffffffffffffffffffffffffffffffff168673ffffffffffffffffffffffffffffffffffffffff1614155b9050600081610e205782610e22565b865b6002546040517f5ef2c7f00000000000000000000000000000000000000000000000000000000081527f91d1777781884d03a6757a803996e38de2a42967fb37eeaca72729271025a9e260048201526024810188905273ffffffffffffffffffffffffffffffffffffffff8b81166044830152808416606483015260006084830152929350911690635ef2c7f09060a401600060405180830381600087803b158015610ecd57600080fd5b505af1158015610ee1573d6000803e3d6000fd5b505060405186925073ffffffffffffffffffffffffffffffffffffffff8c1691507f6ada868dd3058cf77a48a74489fd7963688e5464b2b0fa957ace976243270e9290600090a35091979650505050505050565b60005473ffffffffffffffffffffffffffffffffffffffff163314610620576040517f08c379a000000000000000000000000000000000000000000000000000000000815260206004820181905260248201527f4f776e61626c653a2063616c6c6572206973206e6f7420746865206f776e6572604482015260640161040f565b6000805473ffffffffffffffffffffffffffffffffffffffff8381167fffffffffffffffffffffffff0000000000000000000000000000000000000000831681178455604051919092169283917f8be0079c531659141344cd1fd0a4f28419497f9722a3daafe3b4186f6b6457e09190a35050565b600060285b80156110db577fffffffffffffffffffffffffffffffffffffffffffffffffffffffffffffffff017f3031323334353637383961626364656600000000000000000000000000000000600f84161a81536010909204917fffffffffffffffffffffffffffffffffffffffffffffffffffffffffffffffff017f3031323334353637383961626364656600000000000000000000000000000000600f84161a8153601083049250611030565b50506028600020919050565b600082601f8301126110f7578081fd5b813567ffffffffffffffff80821115611112576111126113b3565b604051601f83017fffffffffffffffffffffffffffffffffffffffffffffffffffffffffffffffe0908116603f01168101908282118183101715611158576111586113b3565b81604052838152866020858801011115611170578485fd5b8360208701602083013792830160200193909352509392505050565b60006020828403121561119d578081fd5b8135610439816113e2565b6000602082840312156111b9578081fd5b8151610439816113e2565b600080604083850312156111d6578081fd5b82356111e1816113e2565b915060208301356111f1816113e2565b809150509250929050565b600080600060608486031215611210578081fd5b833561121b816113e2565b9250602084013561122b816113e2565b9150604084013561123b816113e2565b809150509250925092565b60008060006060848603121561125a578283fd5b8335611265816113e2565b92506020840135611275816113e2565b9150604084013567ffffffffffffffff811115611290578182fd5b61129c868287016110e7565b9150509250925092565b600080604083850312156112b8578182fd5b82356112c3816113e2565b915060208301356111f181611404565b6000602082840312156112e4578081fd5b815161043981611404565b600060208284031215611300578081fd5b5051919050565b600060208284031215611318578081fd5b813567ffffffffffffffff81111561132e578182fd5b610606848285016110e7565b828152600060206040818401528351806040850152825b8181101561136d57858101830151858201606001528201611351565b8181111561137e5783606083870101525b50601f017fffffffffffffffffffffffffffffffffffffffffffffffffffffffffffffffe01692909201606001949350505050565b7f4e487b7100000000000000000000000000000000000000000000000000000000600052604160045260246000fd5b73ffffffffffffffffffffffffffffffffffffffff81168114610bd857600080fd5b8015158114610bd857600080fdfea26469706673582212208946c024ceed56884f6999cc186b6aaad7a1fd8360768d5d816423b8f6f41a4a64736f6c63430008040033",
  "devdoc": {
    "kind": "dev",
    "methods": {
      "claim(address)": {
        "details": "Transfers ownership of the reverse ENS record associated with the      calling account.",
        "params": {
          "owner": "The address to set as the owner of the reverse record in ENS."
        },
        "returns": {
          "_0": "The ENS node hash of the reverse record."
        }
      },
      "claimForAddr(address,address)": {
        "details": "Transfers ownership of the reverse ENS record associated with the      calling account.",
        "params": {
          "addr": "The reverse record to set",
          "owner": "The address to set as the owner of the reverse record in ENS."
        },
        "returns": {
          "_0": "The ENS node hash of the reverse record."
        }
      },
      "claimWithResolver(address,address)": {
        "details": "Transfers ownership of the reverse ENS record associated with the      calling account.",
        "params": {
          "owner": "The address to set as the owner of the reverse record in ENS.",
          "resolver": "The address of the resolver to set; 0 to leave unchanged."
        },
        "returns": {
          "_0": "The ENS node hash of the reverse record."
        }
      },
      "claimWithResolverForAddr(address,address,address)": {
        "details": "Transfers ownership of the reverse ENS record specified with the      address provided",
        "params": {
          "addr": "The reverse record to set",
          "owner": "The address to set as the owner of the reverse record in ENS.",
          "resolver": "The address of the resolver to set; 0 to leave unchanged."
        },
        "returns": {
          "_0": "The ENS node hash of the reverse record."
        }
      },
      "constructor": {
        "details": "Constructor",
        "params": {
          "ensAddr": "The address of the ENS registry.",
          "resolverAddr": "The address of the default reverse resolver."
        }
      },
      "node(address)": {
        "details": "Returns the node hash for a given account's reverse records.",
        "params": {
          "addr": "The address to hash"
        },
        "returns": {
          "_0": "The ENS node hash."
        }
      },
      "owner()": {
        "details": "Returns the address of the current owner."
      },
      "renounceOwnership()": {
        "details": "Leaves the contract without owner. It will not be possible to call `onlyOwner` functions anymore. Can only be called by the current owner. NOTE: Renouncing ownership will leave the contract without an owner, thereby removing any functionality that is only available to the owner."
      },
      "setName(string)": {
        "details": "Sets the `name()` record for the reverse ENS record associated with the calling account. First updates the resolver to the default reverse resolver if necessary.",
        "params": {
          "name": "The name to set for this address."
        },
        "returns": {
          "_0": "The ENS node hash of the reverse record."
        }
      },
      "setNameForAddr(address,address,string)": {
        "details": "Sets the `name()` record for the reverse ENS record associated with the account provided. First updates the resolver to the default reverse resolver if necessary. Only callable by controllers and authorised users",
        "params": {
          "addr": "The reverse record to set",
          "name": "The name to set for this address.",
          "owner": "The owner of the reverse node"
        },
        "returns": {
          "_0": "The ENS node hash of the reverse record."
        }
      },
      "transferOwnership(address)": {
        "details": "Transfers ownership of the contract to a new account (`newOwner`). Can only be called by the current owner."
      }
    },
    "version": 1
  },
  "userdoc": {
    "kind": "user",
    "methods": {},
    "version": 1
  },
  "storageLayout": {
    "storage": [
      {
        "astId": 545,
        "contract": "contracts/registry/ReverseRegistrar.sol:ReverseRegistrar",
        "label": "_owner",
        "offset": 0,
        "slot": "0",
        "type": "t_address"
      },
      {
        "astId": 15434,
        "contract": "contracts/registry/ReverseRegistrar.sol:ReverseRegistrar",
        "label": "controllers",
        "offset": 0,
        "slot": "1",
        "type": "t_mapping(t_address,t_bool)"
      },
      {
        "astId": 12778,
        "contract": "contracts/registry/ReverseRegistrar.sol:ReverseRegistrar",
        "label": "ens",
        "offset": 0,
        "slot": "2",
        "type": "t_contract(ENS)12109"
      },
      {
        "astId": 12781,
        "contract": "contracts/registry/ReverseRegistrar.sol:ReverseRegistrar",
        "label": "defaultResolver",
        "offset": 0,
        "slot": "3",
        "type": "t_contract(NameResolver)12765"
      }
    ],
    "types": {
      "t_address": {
        "encoding": "inplace",
        "label": "address",
        "numberOfBytes": "20"
      },
      "t_bool": {
        "encoding": "inplace",
        "label": "bool",
        "numberOfBytes": "1"
      },
      "t_contract(ENS)12109": {
        "encoding": "inplace",
        "label": "contract ENS",
        "numberOfBytes": "20"
      },
      "t_contract(NameResolver)12765": {
        "encoding": "inplace",
        "label": "contract NameResolver",
        "numberOfBytes": "20"
      },
      "t_mapping(t_address,t_bool)": {
        "encoding": "mapping",
        "key": "t_address",
        "label": "mapping(address => bool)",
        "numberOfBytes": "32",
        "value": "t_bool"
      }
    }
  }
}