{
  "address": "0xFce805fAe2e5Deb6fC141C929795becc7d12a566",
  "abi": [
    {
      "inputs": [
        {
          "internalType": "contract AggregatorInterface",
          "name": "_usdOracle",
          "type": "address"
        },
        {
          "internalType": "uint256[]",
          "name": "_rentPrices",
          "type": "uint256[]"
        }
      ],
      "stateMutability": "nonpayable",
      "type": "constructor"
    },
    {
      "anonymous": false,
      "inputs": [
        {
          "indexed": false,
          "internalType": "address",
          "name": "oracle",
          "type": "address"
        }
      ],
      "name": "OracleChanged",
      "type": "event"
    },
    {
      "anonymous": false,
      "inputs": [
        {
          "indexed": true,
          "internalType": "address",
          "name": "previousOwner",
          "type": "address"
        },
        {
          "indexed": true,
          "internalType": "address",
          "name": "newOwner",
          "type": "address"
        }
      ],
      "name": "OwnershipTransferred",
      "type": "event"
    },
    {
      "anonymous": false,
      "inputs": [
        {
          "indexed": false,
          "internalType": "uint256[]",
          "name": "prices",
          "type": "uint256[]"
        }
      ],
      "name": "RentPriceChanged",
      "type": "event"
    },
    {
      "inputs": [],
      "name": "owner",
      "outputs": [
        {
          "internalType": "address",
          "name": "",
          "type": "address"
        }
      ],
      "stateMutability": "view",
      "type": "function"
    },
    {
      "inputs": [
        {
          "internalType": "string",
          "name": "name",
          "type": "string"
        },
        {
          "internalType": "uint256",
          "name": "expires",
          "type": "uint256"
        },
        {
          "internalType": "uint256",
          "name": "duration",
          "type": "uint256"
        }
      ],
      "name": "premium",
      "outputs": [
        {
          "internalType": "uint256",
          "name": "",
          "type": "uint256"
        }
      ],
      "stateMutability": "view",
      "type": "function"
    },
    {
      "inputs": [
        {
          "internalType": "string",
          "name": "name",
          "type": "string"
        },
        {
          "internalType": "uint256",
          "name": "expires",
          "type": "uint256"
        },
        {
          "internalType": "uint256",
          "name": "duration",
          "type": "uint256"
        }
      ],
      "name": "price",
      "outputs": [
        {
          "internalType": "uint256",
          "name": "",
          "type": "uint256"
        }
      ],
      "stateMutability": "view",
      "type": "function"
    },
    {
      "inputs": [],
      "name": "renounceOwnership",
      "outputs": [],
      "stateMutability": "nonpayable",
      "type": "function"
    },
    {
      "inputs": [
        {
          "internalType": "uint256",
          "name": "",
          "type": "uint256"
        }
      ],
      "name": "rentPrices",
      "outputs": [
        {
          "internalType": "uint256",
          "name": "",
          "type": "uint256"
        }
      ],
      "stateMutability": "view",
      "type": "function"
    },
    {
      "inputs": [
        {
          "internalType": "uint256[]",
          "name": "_rentPrices",
          "type": "uint256[]"
        }
      ],
      "name": "setPrices",
      "outputs": [],
      "stateMutability": "nonpayable",
      "type": "function"
    },
    {
      "inputs": [
        {
          "internalType": "bytes4",
          "name": "interfaceID",
          "type": "bytes4"
        }
      ],
      "name": "supportsInterface",
      "outputs": [
        {
          "internalType": "bool",
          "name": "",
          "type": "bool"
        }
      ],
      "stateMutability": "view",
      "type": "function"
    },
    {
      "inputs": [
        {
          "internalType": "address",
          "name": "newOwner",
          "type": "address"
        }
      ],
      "name": "transferOwnership",
      "outputs": [],
      "stateMutability": "nonpayable",
      "type": "function"
    },
    {
      "inputs": [],
      "name": "usdOracle",
      "outputs": [
        {
          "internalType": "contract AggregatorInterface",
          "name": "",
          "type": "address"
        }
      ],
      "stateMutability": "view",
      "type": "function"
    }
  ],
  "transactionHash": "0x2e050415349b6caba9168853b02450c40531557a4570b717db428deb7102bbae",
  "args": [
    "0xc4427e71C52916B2550b512Cbf9Ead927713A5F2",
    [
      "0x68eb3d12528c5898de44000",
      "0x68eb3d12528c5898de44000",
      "0x68eb3d12528c5898de44000",
      "0x68eb3d12528c5898de44000",
      "0x68eb3d12528c5898de44000",
      "0x68eb3d12528c5898de44000",
      "0x68eb3d12528c5898de44000",
      "0x68eb3d12528c5898de44000"
    ]
  ],
  "solcInputHash": "749be1ed3fab0e88f5d937191903a6e9",
  "bytecode": "0x60a06040523480156200001157600080fd5b50604051620010c4380380620010c48339810160408190526200003491620001d8565b6200003f3362000064565b6001600160601b0319606083901b166080526200005c81620000b4565b505062000322565b600080546001600160a01b038381166001600160a01b0319831681178455604051919092169283917f8be0079c531659141344cd1fd0a4f28419497f9722a3daafe3b4186f6b6457e09190a35050565b620000be62000110565b8051620000d390600190602084019062000171565b507f73422d94aedd596c2d4d39f27a01033adc390a9054efaf259afefd95ef7331df81604051620001059190620002c6565b60405180910390a150565b6000546001600160a01b031633146200016f5760405162461bcd60e51b815260206004820181905260248201527f4f776e61626c653a2063616c6c6572206973206e6f7420746865206f776e6572604482015260640160405180910390fd5b565b828054828255906000526020600020908101928215620001af579160200282015b82811115620001af57825182559160200191906001019062000192565b50620001bd929150620001c1565b5090565b5b80821115620001bd5760008155600101620001c2565b60008060408385031215620001eb578182fd5b82516001600160a01b038116811462000202578283fd5b602084810151919350906001600160401b038082111562000221578384fd5b818601915086601f83011262000235578384fd5b8151818111156200024a576200024a6200030c565b8060051b604051601f19603f830116810181811085821117156200027257620002726200030c565b604052828152858101935084860182860187018b101562000291578788fd5b8795505b83861015620002b557805185526001959095019493860193860162000295565b508096505050505050509250929050565b6020808252825182820181905260009190848201906040850190845b818110156200030057835183529284019291840191600101620002e2565b50909695505050505050565b634e487b7160e01b600052604160045260246000fd5b60805160601c610d7c6200034860003960008181610178015261079c0152610d7c6000f3fe608060405234801561001057600080fd5b50600436106100a35760003560e01c806379cf92d311610076578063a34e35961161005b578063a34e359614610160578063c8a4271f14610173578063f2fde38b1461019a57600080fd5b806379cf92d31461010e5780638da5cb5b1461012157600080fd5b806301ffc9a7146100a857806306d5d0b6146100d057806350e9a715146100f1578063715018a614610104575b600080fd5b6100bb6100b6366004610adc565b6101ad565b60405190151581526020015b60405180910390f35b6100e36100de366004610bae565b610246565b6040519081526020016100c7565b6100e36100ff366004610b34565b610267565b61010c61038f565b005b61010c61011c3660046109fe565b6103a3565b60005473ffffffffffffffffffffffffffffffffffffffff165b60405173ffffffffffffffffffffffffffffffffffffffff90911681526020016100c7565b6100e361016e366004610b34565b6103f9565b61013b7f000000000000000000000000000000000000000000000000000000000000000081565b61010c6101a83660046109ca565b61044f565b60007fffffffff0000000000000000000000000000000000000000000000000000000082167f01ffc9a700000000000000000000000000000000000000000000000000000000148061024057507fffffffff0000000000000000000000000000000000000000000000000000000082167ff3a7928300000000000000000000000000000000000000000000000000000000145b92915050565b6001818154811061025657600080fd5b600091825260209091200154905081565b6000806102a986868080601f01602080910402602001604051908101604052809392919081815260200183838082843760009201919091525061050b92505050565b6001549091508111156102bb57506001545b600081116102c857600080fd5b600061032a8460016102da8186610c98565b81548110610311577f4e487b7100000000000000000000000000000000000000000000000000000000600052603260045260246000fd5b906000526020600020015461073990919063ffffffff16565b905061037961037288888080601f0160208091040260200160405190810160405280939291908181526020018383808284376000920191909152508a92508991506107729050565b829061077b565b905061038481610797565b979650505050505050565b610397610852565b6103a160006108d3565b565b6103ab610852565b80516103be90600190602084019061096a565b507f73422d94aedd596c2d4d39f27a01033adc390a9054efaf259afefd95ef7331df816040516103ee9190610bc6565b60405180910390a150565b600061044661044186868080601f0160208091040260200160405190810160405280939291908181526020018383808284376000920191909152508892508791506107729050565b610797565b95945050505050565b610457610852565b73ffffffffffffffffffffffffffffffffffffffff81166104ff576040517f08c379a000000000000000000000000000000000000000000000000000000000815260206004820152602660248201527f4f776e61626c653a206e6577206f776e657220697320746865207a65726f206160448201527f646472657373000000000000000000000000000000000000000000000000000060648201526084015b60405180910390fd5b610508816108d3565b50565b8051600090819081905b80821015610730576000858381518110610558577f4e487b7100000000000000000000000000000000000000000000000000000000600052603260045260246000fd5b01602001517fff000000000000000000000000000000000000000000000000000000000000001690507f80000000000000000000000000000000000000000000000000000000000000008110156105bb576105b4600184610c0a565b925061071d565b7fe0000000000000000000000000000000000000000000000000000000000000007fff0000000000000000000000000000000000000000000000000000000000000082161015610610576105b4600284610c0a565b7ff0000000000000000000000000000000000000000000000000000000000000007fff0000000000000000000000000000000000000000000000000000000000000082161015610665576105b4600384610c0a565b7ff8000000000000000000000000000000000000000000000000000000000000007fff00000000000000000000000000000000000000000000000000000000000000821610156106ba576105b4600484610c0a565b7ffc000000000000000000000000000000000000000000000000000000000000007fff000000000000000000000000000000000000000000000000000000000000008216101561070f576105b4600584610c0a565b61071a600684610c0a565b92505b508261072881610caf565b935050610515565b50909392505050565b60008261074857506000610240565b60006107548385610c5b565b9050826107618583610c22565b1461076b57600080fd5b9392505050565b60009392505050565b6000806107888385610c0a565b90508381101561076b57600080fd5b6000807f000000000000000000000000000000000000000000000000000000000000000073ffffffffffffffffffffffffffffffffffffffff166350d25bcd6040518163ffffffff1660e01b815260040160206040518083038186803b15801561080057600080fd5b505afa158015610814573d6000803e3d6000fd5b505050506040513d601f19601f820116820180604052508101906108389190610b1c565b905061076b8161084c856305f5e100610739565b90610948565b60005473ffffffffffffffffffffffffffffffffffffffff1633146103a1576040517f08c379a000000000000000000000000000000000000000000000000000000000815260206004820181905260248201527f4f776e61626c653a2063616c6c6572206973206e6f7420746865206f776e657260448201526064016104f6565b6000805473ffffffffffffffffffffffffffffffffffffffff8381167fffffffffffffffffffffffff0000000000000000000000000000000000000000831681178455604051919092169283917f8be0079c531659141344cd1fd0a4f28419497f9722a3daafe3b4186f6b6457e09190a35050565b600080821161095657600080fd5b60006109628385610c22565b949350505050565b8280548282559060005260206000209081019282156109a5579160200282015b828111156109a557825182559160200191906001019061098a565b506109b19291506109b5565b5090565b5b808211156109b157600081556001016109b6565b6000602082840312156109db578081fd5b813573ffffffffffffffffffffffffffffffffffffffff8116811461076b578182fd5b60006020808385031215610a10578182fd5b823567ffffffffffffffff80821115610a27578384fd5b818501915085601f830112610a3a578384fd5b813581811115610a4c57610a4c610d17565b8060051b6040517fffffffffffffffffffffffffffffffffffffffffffffffffffffffffffffffe0603f83011681018181108582111715610a8f57610a8f610d17565b604052828152858101935084860182860187018a1015610aad578788fd5b8795505b83861015610acf578035855260019590950194938601938601610ab1565b5098975050505050505050565b600060208284031215610aed578081fd5b81357fffffffff000000000000000000000000000000000000000000000000000000008116811461076b578182fd5b600060208284031215610b2d578081fd5b5051919050565b60008060008060608587031215610b49578283fd5b843567ffffffffffffffff80821115610b60578485fd5b818701915087601f830112610b73578485fd5b813581811115610b81578586fd5b886020828501011115610b92578586fd5b6020928301999098509187013596604001359550909350505050565b600060208284031215610bbf578081fd5b5035919050565b6020808252825182820181905260009190848201906040850190845b81811015610bfe57835183529284019291840191600101610be2565b50909695505050505050565b60008219821115610c1d57610c1d610ce8565b500190565b600082610c56577f4e487b710000000000000000000000000000000000000000000000000000000081526012600452602481fd5b500490565b6000817fffffffffffffffffffffffffffffffffffffffffffffffffffffffffffffffff0483118215151615610c9357610c93610ce8565b500290565b600082821015610caa57610caa610ce8565b500390565b60007fffffffffffffffffffffffffffffffffffffffffffffffffffffffffffffffff821415610ce157610ce1610ce8565b5060010190565b7f4e487b7100000000000000000000000000000000000000000000000000000000600052601160045260246000fd5b7f4e487b7100000000000000000000000000000000000000000000000000000000600052604160045260246000fdfea26469706673582212202102925d990014e13783a82b629225369faa0aec7f9ba53405dc876e32e2343b64736f6c63430008040033",
  "devdoc": {
    "kind": "dev",
    "methods": {
      "owner()": {
        "details": "Returns the address of the current owner."
      },
      "premium(string,uint256,uint256)": {
        "details": "Returns the pricing premium in wei."
      },
      "price(string,uint256,uint256)": {
        "details": "Returns the price to register or renew a name.",
        "params": {
          "duration": "How long the name is being registered or extended for, in seconds.",
          "expires": "When the name presently expires (0 if this is a new registration).",
          "name": "The name being registered or renewed."
        },
        "returns": {
          "_0": "The price of this renewal or registration, in wei."
        }
      },
      "renounceOwnership()": {
        "details": "Leaves the contract without owner. It will not be possible to call `onlyOwner` functions anymore. Can only be called by the current owner. NOTE: Renouncing ownership will leave the contract without an owner, thereby removing any functionality that is only available to the owner."
      },
      "setPrices(uint256[])": {
        "details": "Sets rent prices.",
        "params": {
          "_rentPrices": "The price array. Each element corresponds to a specific                    name length; names longer than the length of the array                    default to the price of the last element. Values are                    in base price units, equal to one attodollar (1e-18                    dollar) each."
        }
      },
      "transferOwnership(address)": {
        "details": "Transfers ownership of the contract to a new account (`newOwner`). Can only be called by the current owner."
      }
    },
    "version": 1
  },
  "userdoc": {
    "kind": "user",
    "methods": {},
    "version": 1
  },
  "storageLayout": {
    "storage": [
      {
        "astId": 545,
        "contract": "contracts/ethregistrar/StablePriceOracle.sol:StablePriceOracle",
        "label": "_owner",
        "offset": 0,
        "slot": "0",
        "type": "t_address"
      },
      {
        "astId": 11501,
        "contract": "contracts/ethregistrar/StablePriceOracle.sol:StablePriceOracle",
        "label": "rentPrices",
        "offset": 0,
        "slot": "1",
        "type": "t_array(t_uint256)dyn_storage"
      }
    ],
    "types": {
      "t_address": {
        "encoding": "inplace",
        "label": "address",
        "numberOfBytes": "20"
      },
      "t_array(t_uint256)dyn_storage": {
        "base": "t_uint256",
        "encoding": "dynamic_array",
        "label": "uint256[]",
        "numberOfBytes": "32"
      },
      "t_uint256": {
        "encoding": "inplace",
        "label": "uint256",
        "numberOfBytes": "32"
      }
    }
  }
}