{
  "address": "0x5795b5f5578a2D96668C74D58d1044cdA6d21332",
  "abi": [
    {
      "inputs": [
        {
          "internalType": "contract BaseRegistrarImplementation",
          "name": "_base",
          "type": "address"
        },
        {
          "internalType": "contract PriceOracle",
          "name": "_prices",
          "type": "address"
        }
      ],
      "stateMutability": "nonpayable",
      "type": "constructor"
    },
    {
      "anonymous": false,
      "inputs": [
        {
          "indexed": false,
          "internalType": "string",
          "name": "name",
          "type": "string"
        },
        {
          "indexed": true,
          "internalType": "bytes32",
          "name": "label",
          "type": "bytes32"
        },
        {
          "indexed": true,
          "internalType": "address",
          "name": "owner",
          "type": "address"
        },
        {
          "indexed": false,
          "internalType": "uint256",
          "name": "cost",
          "type": "uint256"
        },
        {
          "indexed": false,
          "internalType": "uint256",
          "name": "expires",
          "type": "uint256"
        }
      ],
      "name": "NameRegistered",
      "type": "event"
    },
    {
      "anonymous": false,
      "inputs": [
        {
          "indexed": false,
          "internalType": "string",
          "name": "name",
          "type": "string"
        },
        {
          "indexed": true,
          "internalType": "bytes32",
          "name": "label",
          "type": "bytes32"
        },
        {
          "indexed": false,
          "internalType": "uint256",
          "name": "cost",
          "type": "uint256"
        },
        {
          "indexed": false,
          "internalType": "uint256",
          "name": "expires",
          "type": "uint256"
        }
      ],
      "name": "NameRenewed",
      "type": "event"
    },
    {
      "anonymous": false,
      "inputs": [
        {
          "indexed": true,
          "internalType": "address",
          "name": "oracle",
          "type": "address"
        }
      ],
      "name": "NewPriceOracle",
      "type": "event"
    },
    {
      "anonymous": false,
      "inputs": [
        {
          "indexed": true,
          "internalType": "address",
          "name": "previousOwner",
          "type": "address"
        },
        {
          "indexed": true,
          "internalType": "address",
          "name": "newOwner",
          "type": "address"
        }
      ],
      "name": "OwnershipTransferred",
      "type": "event"
    },
    {
      "inputs": [],
      "name": "MIN_REGISTRATION_DURATION",
      "outputs": [
        {
          "internalType": "uint256",
          "name": "",
          "type": "uint256"
        }
      ],
      "stateMutability": "view",
      "type": "function"
    },
    {
      "inputs": [
        {
          "internalType": "string",
          "name": "name",
          "type": "string"
        }
      ],
      "name": "available",
      "outputs": [
        {
          "internalType": "bool",
          "name": "",
          "type": "bool"
        }
      ],
      "stateMutability": "view",
      "type": "function"
    },
    {
      "inputs": [
        {
          "internalType": "bytes32",
          "name": "",
          "type": "bytes32"
        }
      ],
      "name": "commitments",
      "outputs": [
        {
          "internalType": "uint256",
          "name": "",
          "type": "uint256"
        }
      ],
      "stateMutability": "view",
      "type": "function"
    },
    {
      "inputs": [],
      "name": "owner",
      "outputs": [
        {
          "internalType": "address",
          "name": "",
          "type": "address"
        }
      ],
      "stateMutability": "view",
      "type": "function"
    },
    {
      "inputs": [
        {
          "internalType": "string",
          "name": "name",
          "type": "string"
        },
        {
          "internalType": "address",
          "name": "owner",
          "type": "address"
        },
        {
          "internalType": "uint256",
          "name": "duration",
          "type": "uint256"
        },
        {
          "internalType": "address",
          "name": "resolver",
          "type": "address"
        },
        {
          "internalType": "address",
          "name": "addr",
          "type": "address"
        }
      ],
      "name": "registerWithConfig",
      "outputs": [],
      "stateMutability": "nonpayable",
      "type": "function"
    },
    {
      "inputs": [],
      "name": "renounceOwnership",
      "outputs": [],
      "stateMutability": "nonpayable",
      "type": "function"
    },
    {
      "inputs": [
        {
          "internalType": "string",
          "name": "name",
          "type": "string"
        },
        {
          "internalType": "uint256",
          "name": "duration",
          "type": "uint256"
        }
      ],
      "name": "rentPrice",
      "outputs": [
        {
          "internalType": "uint256",
          "name": "",
          "type": "uint256"
        }
      ],
      "stateMutability": "view",
      "type": "function"
    },
    {
      "inputs": [
        {
          "internalType": "contract PriceOracle",
          "name": "_prices",
          "type": "address"
        }
      ],
      "name": "setPriceOracle",
      "outputs": [],
      "stateMutability": "nonpayable",
      "type": "function"
    },
    {
      "inputs": [
        {
          "internalType": "bytes4",
          "name": "interfaceID",
          "type": "bytes4"
        }
      ],
      "name": "supportsInterface",
      "outputs": [
        {
          "internalType": "bool",
          "name": "",
          "type": "bool"
        }
      ],
      "stateMutability": "pure",
      "type": "function"
    },
    {
      "inputs": [
        {
          "internalType": "address",
          "name": "newOwner",
          "type": "address"
        }
      ],
      "name": "transferOwnership",
      "outputs": [],
      "stateMutability": "nonpayable",
      "type": "function"
    },
    {
      "inputs": [
        {
          "internalType": "string",
          "name": "name",
          "type": "string"
        }
      ],
      "name": "valid",
      "outputs": [
        {
          "internalType": "bool",
          "name": "",
          "type": "bool"
        }
      ],
      "stateMutability": "pure",
      "type": "function"
    },
    {
      "inputs": [],
      "name": "withdraw",
      "outputs": [],
      "stateMutability": "nonpayable",
      "type": "function"
    }
  ],
  "transactionHash": "0x81255aa6fd7453621d22c0662d9ef2ebad7b8dd67f76f76fc8fa9a78350dcecf",
  "args": [
    "0x272A6Ee831169535f0AeD424cd3C4A720e7FF448",
    "0x017A4aB4FD8bA5c9A749dbcF55e55907470976EB"
  ],
  "solcInputHash": "65924f228e5e0c0bd4ecd1c86a5f3fff",
  "bytecode": "0x608060405234801561001057600080fd5b506040516200147938038062001479833981016040819052610031916100bb565b61003a3361006b565b600180546001600160a01b039384166001600160a01b0319918216179091556002805492909316911617905561010c565b600080546001600160a01b038381166001600160a01b0319831681178455604051919092169283917f8be0079c531659141344cd1fd0a4f28419497f9722a3daafe3b4186f6b6457e09190a35050565b600080604083850312156100cd578182fd5b82516100d8816100f4565b60208401519092506100e9816100f4565b809150509250929050565b6001600160a01b038116811461010957600080fd5b50565b61135d806200011c6000396000f3fe608060405234801561001057600080fd5b50600436106100d45760003560e01c80638a95b09f11610081578063aeb8ce9b1161005b578063aeb8ce9b146101ac578063b2d3ed39146101bf578063f2fde38b146101d257600080fd5b80638a95b09f146101675780638da5cb5b146101715780639791c0971461019957600080fd5b8063715018a6116100b2578063715018a61461011e578063839df9451461012657806383e7f6ff1461015457600080fd5b806301ffc9a7146100d95780633ccfd60b14610101578063530e784f1461010b575b600080fd5b6100ec6100e7366004611077565b6101e5565b60405190151581526020015b60405180910390f35b6101096102ca565b005b61010961011936600461100b565b610301565b610109610378565b610146610134366004611047565b60036020526000908152604090205481565b6040519081526020016100f8565b610146610162366004611185565b61038c565b6101466224ea0081565b60005460405173ffffffffffffffffffffffffffffffffffffffff90911681526020016100f8565b6100ec6101a73660046110d3565b6104bf565b6100ec6101ba3660046110d3565b6104d4565b6101096101cd366004611106565b610597565b6101096101e036600461100b565b610b89565b60007fffffffff0000000000000000000000000000000000000000000000000000000082167f01ffc9a700000000000000000000000000000000000000000000000000000000148061027857507fffffffff0000000000000000000000000000000000000000000000000000000082167fa8a9e93100000000000000000000000000000000000000000000000000000000145b806102c457507fffffffff0000000000000000000000000000000000000000000000000000000082167ff7a1696300000000000000000000000000000000000000000000000000000000145b92915050565b6102d2610c42565b60405133904780156108fc02916000818181858888f193505050501580156102fe573d6000803e3d6000fd5b50565b610309610c42565b600280547fffffffffffffffffffffffff00000000000000000000000000000000000000001673ffffffffffffffffffffffffffffffffffffffff83169081179091556040517ff261845a790fe29bbd6631e2ca4a5bdc83e6eed7c3271d9590d97287e00e912390600090a250565b610380610c42565b61038a6000610cc3565b565b815160208301206002546001546040517fd6e4fa86000000000000000000000000000000000000000000000000000000008152600481018490526000939273ffffffffffffffffffffffffffffffffffffffff908116926350e9a7159288929091169063d6e4fa869060240160206040518083038186803b15801561041057600080fd5b505afa158015610424573d6000803e3d6000fd5b505050506040513d601f19601f82011682018060405250810190610448919061105f565b866040518463ffffffff1660e01b815260040161046793929190611231565b60206040518083038186803b15801561047f57600080fd5b505afa158015610493573d6000803e3d6000fd5b505050506040513d601f19601f820116820180604052508101906104b7919061105f565b949350505050565b600060036104cc83610d38565b101592915050565b805160208201206000906104e7836104bf565b801561059057506001546040517f96e494e80000000000000000000000000000000000000000000000000000000081526004810183905273ffffffffffffffffffffffffffffffffffffffff909116906396e494e89060240160206040518083038186803b15801561055857600080fd5b505afa15801561056c573d6000803e3d6000fd5b505050506040513d601f19601f820116820180604052508101906105909190611027565b9392505050565b61059f610c42565b8451602086012080600073ffffffffffffffffffffffffffffffffffffffff851615610a54576001546040517ffca247ac000000000000000000000000000000000000000000000000000000008152600481018490523060248201526044810188905273ffffffffffffffffffffffffffffffffffffffff9091169063fca247ac90606401602060405180830381600087803b15801561063e57600080fd5b505af1158015610652573d6000803e3d6000fd5b505050506040513d601f19601f82011682018060405250810190610676919061105f565b90506000600160009054906101000a900473ffffffffffffffffffffffffffffffffffffffff1673ffffffffffffffffffffffffffffffffffffffff1663ddf7fcb06040518163ffffffff1660e01b815260040160206040518083038186803b1580156106e257600080fd5b505afa1580156106f6573d6000803e3d6000fd5b505050506040513d601f19601f8201168201806040525081019061071a919061105f565b6040805160208101929092528101859052606001604080517fffffffffffffffffffffffffffffffffffffffffffffffffffffffffffffffe081840301815282825280516020918201206001547f3f15457f000000000000000000000000000000000000000000000000000000008552925190945073ffffffffffffffffffffffffffffffffffffffff90921692633f15457f9260048083019392829003018186803b1580156107c957600080fd5b505afa1580156107dd573d6000803e3d6000fd5b505050506040513d601f19601f8201168201806040525081019061080191906110b7565b6040517f1896f70a0000000000000000000000000000000000000000000000000000000081526004810183905273ffffffffffffffffffffffffffffffffffffffff88811660248301529190911690631896f70a90604401600060405180830381600087803b15801561087357600080fd5b505af1158015610887573d6000803e3d6000fd5b5050505073ffffffffffffffffffffffffffffffffffffffff851615610930576040517fd5fa2b000000000000000000000000000000000000000000000000000000000081526004810182905273ffffffffffffffffffffffffffffffffffffffff868116602483015287169063d5fa2b0090604401600060405180830381600087803b15801561091757600080fd5b505af115801561092b573d6000803e3d6000fd5b505050505b6001546040517f28ed4f6c0000000000000000000000000000000000000000000000000000000081526004810185905273ffffffffffffffffffffffffffffffffffffffff8a81166024830152909116906328ed4f6c90604401600060405180830381600087803b1580156109a457600080fd5b505af11580156109b8573d6000803e3d6000fd5b50506001546040517f23b872dd00000000000000000000000000000000000000000000000000000000815230600482015273ffffffffffffffffffffffffffffffffffffffff8c811660248301526044820188905290911692506323b872dd9150606401600060405180830381600087803b158015610a3657600080fd5b505af1158015610a4a573d6000803e3d6000fd5b5050505050610b2b565b73ffffffffffffffffffffffffffffffffffffffff841615610a7557600080fd5b6001546040517ffca247ac0000000000000000000000000000000000000000000000000000000081526004810184905273ffffffffffffffffffffffffffffffffffffffff8981166024830152604482018990529091169063fca247ac90606401602060405180830381600087803b158015610af057600080fd5b505af1158015610b04573d6000803e3d6000fd5b505050506040513d601f19601f82011682018060405250810190610b28919061105f565b90505b8673ffffffffffffffffffffffffffffffffffffffff16837fca6abbe9d7f11422cb6ca7629fbf6fe9efb1c621f71ce8f02b9f2a230097404f8a600085604051610b7793929190611231565b60405180910390a35050505050505050565b610b91610c42565b73ffffffffffffffffffffffffffffffffffffffff8116610c39576040517f08c379a000000000000000000000000000000000000000000000000000000000815260206004820152602660248201527f4f776e61626c653a206e6577206f776e657220697320746865207a65726f206160448201527f646472657373000000000000000000000000000000000000000000000000000060648201526084015b60405180910390fd5b6102fe81610cc3565b60005473ffffffffffffffffffffffffffffffffffffffff16331461038a576040517f08c379a000000000000000000000000000000000000000000000000000000000815260206004820181905260248201527f4f776e61626c653a2063616c6c6572206973206e6f7420746865206f776e65726044820152606401610c30565b6000805473ffffffffffffffffffffffffffffffffffffffff8381167fffffffffffffffffffffffff0000000000000000000000000000000000000000831681178455604051919092169283917f8be0079c531659141344cd1fd0a4f28419497f9722a3daafe3b4186f6b6457e09190a35050565b8051600090819081905b80821015610f5d576000858381518110610d85577f4e487b7100000000000000000000000000000000000000000000000000000000600052603260045260246000fd5b01602001517fff000000000000000000000000000000000000000000000000000000000000001690507f8000000000000000000000000000000000000000000000000000000000000000811015610de857610de1600184611256565b9250610f4a565b7fe0000000000000000000000000000000000000000000000000000000000000007fff0000000000000000000000000000000000000000000000000000000000000082161015610e3d57610de1600284611256565b7ff0000000000000000000000000000000000000000000000000000000000000007fff0000000000000000000000000000000000000000000000000000000000000082161015610e9257610de1600384611256565b7ff8000000000000000000000000000000000000000000000000000000000000007fff0000000000000000000000000000000000000000000000000000000000000082161015610ee757610de1600484611256565b7ffc000000000000000000000000000000000000000000000000000000000000007fff0000000000000000000000000000000000000000000000000000000000000082161015610f3c57610de1600584611256565b610f47600684611256565b92505b5082610f558161126e565b935050610d42565b50909392505050565b600082601f830112610f76578081fd5b813567ffffffffffffffff80821115610f9157610f916112d6565b604051601f83017fffffffffffffffffffffffffffffffffffffffffffffffffffffffffffffffe0908116603f01168101908282118183101715610fd757610fd76112d6565b81604052838152866020858801011115610fef578485fd5b8360208701602083013792830160200193909352509392505050565b60006020828403121561101c578081fd5b813561059081611305565b600060208284031215611038578081fd5b81518015158114610590578182fd5b600060208284031215611058578081fd5b5035919050565b600060208284031215611070578081fd5b5051919050565b600060208284031215611088578081fd5b81357fffffffff0000000000000000000000000000000000000000000000000000000081168114610590578182fd5b6000602082840312156110c8578081fd5b815161059081611305565b6000602082840312156110e4578081fd5b813567ffffffffffffffff8111156110fa578182fd5b6104b784828501610f66565b600080600080600060a0868803121561111d578081fd5b853567ffffffffffffffff811115611133578182fd5b61113f88828901610f66565b955050602086013561115081611305565b935060408601359250606086013561116781611305565b9150608086013561117781611305565b809150509295509295909350565b60008060408385031215611197578182fd5b823567ffffffffffffffff8111156111ad578283fd5b6111b985828601610f66565b95602094909401359450505050565b60008151808452815b818110156111ed576020818501810151868301820152016111d1565b818111156111fe5782602083870101525b50601f017fffffffffffffffffffffffffffffffffffffffffffffffffffffffffffffffe0169290920160200192915050565b60608152600061124460608301866111c8565b60208301949094525060400152919050565b60008219821115611269576112696112a7565b500190565b60007fffffffffffffffffffffffffffffffffffffffffffffffffffffffffffffffff8214156112a0576112a06112a7565b5060010190565b7f4e487b7100000000000000000000000000000000000000000000000000000000600052601160045260246000fd5b7f4e487b7100000000000000000000000000000000000000000000000000000000600052604160045260246000fd5b73ffffffffffffffffffffffffffffffffffffffff811681146102fe57600080fdfea2646970667358221220a5e2eb01953e217c2d4ac94a21fbdc75bb8e6565c00fa4347cc52efc277088a064736f6c63430008040033",
  "devdoc": {
    "details": "A registrar controller for registering and renewing names at fixed cost.",
    "kind": "dev",
    "methods": {
      "owner()": {
        "details": "Returns the address of the current owner."
      },
      "renounceOwnership()": {
        "details": "Leaves the contract without owner. It will not be possible to call `onlyOwner` functions anymore. Can only be called by the current owner. NOTE: Renouncing ownership will leave the contract without an owner, thereby removing any functionality that is only available to the owner."
      },
      "transferOwnership(address)": {
        "details": "Transfers ownership of the contract to a new account (`newOwner`). Can only be called by the current owner."
      }
    },
    "version": 1
  },
  "userdoc": {
    "kind": "user",
    "methods": {},
    "version": 1
  },
  "storageLayout": {
    "storage": [
      {
        "astId": 545,
        "contract": "contracts/ethregistrar/PrivateRegistrarController.sol:PrivateRegistrarController",
        "label": "_owner",
        "offset": 0,
        "slot": "0",
        "type": "t_address"
      },
      {
        "astId": 11475,
        "contract": "contracts/ethregistrar/PrivateRegistrarController.sol:PrivateRegistrarController",
        "label": "base",
        "offset": 0,
        "slot": "1",
        "type": "t_contract(BaseRegistrarImplementation)10225"
      },
      {
        "astId": 11478,
        "contract": "contracts/ethregistrar/PrivateRegistrarController.sol:PrivateRegistrarController",
        "label": "prices",
        "offset": 0,
        "slot": "2",
        "type": "t_contract(PriceOracle)11425"
      },
      {
        "astId": 11482,
        "contract": "contracts/ethregistrar/PrivateRegistrarController.sol:PrivateRegistrarController",
        "label": "commitments",
        "offset": 0,
        "slot": "3",
        "type": "t_mapping(t_bytes32,t_uint256)"
      }
    ],
    "types": {
      "t_address": {
        "encoding": "inplace",
        "label": "address",
        "numberOfBytes": "20"
      },
      "t_bytes32": {
        "encoding": "inplace",
        "label": "bytes32",
        "numberOfBytes": "32"
      },
      "t_contract(BaseRegistrarImplementation)10225": {
        "encoding": "inplace",
        "label": "contract BaseRegistrarImplementation",
        "numberOfBytes": "20"
      },
      "t_contract(PriceOracle)11425": {
        "encoding": "inplace",
        "label": "contract PriceOracle",
        "numberOfBytes": "20"
      },
      "t_mapping(t_bytes32,t_uint256)": {
        "encoding": "mapping",
        "key": "t_bytes32",
        "label": "mapping(bytes32 => uint256)",
        "numberOfBytes": "32",
        "value": "t_uint256"
      },
      "t_uint256": {
        "encoding": "inplace",
        "label": "uint256",
        "numberOfBytes": "32"
      }
    }
  }
}