{
  "address": "0xD2DeEADc2E5f91D7A2Cab71a9AA623E8CbC2DE3D",
  "abi": [
    {
      "inputs": [
        {
          "internalType": "contract AggregatorInterface",
          "name": "_usdOracle",
          "type": "address"
        },
        {
          "internalType": "uint256[]",
          "name": "_rentPrices",
          "type": "uint256[]"
        }
      ],
      "stateMutability": "nonpayable",
      "type": "constructor"
    },
    {
      "anonymous": false,
      "inputs": [
        {
          "indexed": false,
          "internalType": "address",
          "name": "oracle",
          "type": "address"
        }
      ],
      "name": "OracleChanged",
      "type": "event"
    },
    {
      "anonymous": false,
      "inputs": [
        {
          "indexed": true,
          "internalType": "address",
          "name": "previousOwner",
          "type": "address"
        },
        {
          "indexed": true,
          "internalType": "address",
          "name": "newOwner",
          "type": "address"
        }
      ],
      "name": "OwnershipTransferred",
      "type": "event"
    },
    {
      "anonymous": false,
      "inputs": [
        {
          "indexed": false,
          "internalType": "uint256[]",
          "name": "prices",
          "type": "uint256[]"
        }
      ],
      "name": "RentPriceChanged",
      "type": "event"
    },
    {
      "inputs": [],
      "name": "owner",
      "outputs": [
        {
          "internalType": "address",
          "name": "",
          "type": "address"
        }
      ],
      "stateMutability": "view",
      "type": "function"
    },
    {
      "inputs": [
        {
          "internalType": "string",
          "name": "name",
          "type": "string"
        },
        {
          "internalType": "uint256",
          "name": "expires",
          "type": "uint256"
        },
        {
          "internalType": "uint256",
          "name": "duration",
          "type": "uint256"
        }
      ],
      "name": "premium",
      "outputs": [
        {
          "internalType": "uint256",
          "name": "",
          "type": "uint256"
        }
      ],
      "stateMutability": "view",
      "type": "function"
    },
    {
      "inputs": [
        {
          "internalType": "string",
          "name": "name",
          "type": "string"
        },
        {
          "internalType": "uint256",
          "name": "expires",
          "type": "uint256"
        },
        {
          "internalType": "uint256",
          "name": "duration",
          "type": "uint256"
        }
      ],
      "name": "price",
      "outputs": [
        {
          "internalType": "uint256",
          "name": "",
          "type": "uint256"
        }
      ],
      "stateMutability": "view",
      "type": "function"
    },
    {
      "inputs": [],
      "name": "renounceOwnership",
      "outputs": [],
      "stateMutability": "nonpayable",
      "type": "function"
    },
    {
      "inputs": [
        {
          "internalType": "uint256",
          "name": "",
          "type": "uint256"
        }
      ],
      "name": "rentPrices",
      "outputs": [
        {
          "internalType": "uint256",
          "name": "",
          "type": "uint256"
        }
      ],
      "stateMutability": "view",
      "type": "function"
    },
    {
      "inputs": [
        {
          "internalType": "uint256[]",
          "name": "_rentPrices",
          "type": "uint256[]"
        }
      ],
      "name": "setPrices",
      "outputs": [],
      "stateMutability": "nonpayable",
      "type": "function"
    },
    {
      "inputs": [
        {
          "internalType": "bytes4",
          "name": "interfaceID",
          "type": "bytes4"
        }
      ],
      "name": "supportsInterface",
      "outputs": [
        {
          "internalType": "bool",
          "name": "",
          "type": "bool"
        }
      ],
      "stateMutability": "view",
      "type": "function"
    },
    {
      "inputs": [
        {
          "internalType": "address",
          "name": "newOwner",
          "type": "address"
        }
      ],
      "name": "transferOwnership",
      "outputs": [],
      "stateMutability": "nonpayable",
      "type": "function"
    },
    {
      "inputs": [],
      "name": "usdOracle",
      "outputs": [
        {
          "internalType": "contract AggregatorInterface",
          "name": "",
          "type": "address"
        }
      ],
      "stateMutability": "view",
      "type": "function"
    }
  ],
  "transactionHash": "0xf034d6531fa9b7f479176d9cabfa9f63e07ba744e9ad2511e2ab0ae264d9728c",
  "args": [
    "0x63C4418076603DC260E1fC9e074f142a9ce2e47D",
    [
      16478144,
      16478144,
      16478144,
      9569999,
      9569999,
      9569999,
      3866026,
      47533
    ]
  ],
  "solcInputHash": "0f61475f31037ae29b7ca517d529dbe1",
  "bytecode": "0x60a06040523480156200001157600080fd5b50604051620011a2380380620011a28339810160408190526200003491620001cc565b6200003f3362000064565b6001600160601b0319606083901b166080526200005c81620000b4565b505062000316565b600080546001600160a01b038381166001600160a01b0319831681178455604051919092169283917f8be0079c531659141344cd1fd0a4f28419497f9722a3daafe3b4186f6b6457e09190a35050565b6000546001600160a01b03163314620001135760405162461bcd60e51b815260206004820181905260248201527f4f776e61626c653a2063616c6c6572206973206e6f7420746865206f776e6572604482015260640160405180910390fd5b80516200012890600190602084019062000165565b507f73422d94aedd596c2d4d39f27a01033adc390a9054efaf259afefd95ef7331df816040516200015a9190620002ba565b60405180910390a150565b828054828255906000526020600020908101928215620001a3579160200282015b82811115620001a357825182559160200191906001019062000186565b50620001b1929150620001b5565b5090565b5b80821115620001b15760008155600101620001b6565b60008060408385031215620001df578182fd5b82516001600160a01b0381168114620001f6578283fd5b602084810151919350906001600160401b038082111562000215578384fd5b818601915086601f83011262000229578384fd5b8151818111156200023e576200023e62000300565b8060051b604051601f19603f8301168101818110858211171562000266576200026662000300565b604052828152858101935084860182860187018b101562000285578788fd5b8795505b83861015620002a957805185526001959095019493860193860162000289565b508096505050505050509250929050565b6020808252825182820181905260009190848201906040850190845b81811015620002f457835183529284019291840191600101620002d6565b50909695505050505050565b634e487b7160e01b600052604160045260246000fd5b60805160601c610e666200033c6000396000818161017801526109070152610e666000f3fe608060405234801561001057600080fd5b50600436106100a35760003560e01c806379cf92d311610076578063a34e35961161005b578063a34e359614610160578063c8a4271f14610173578063f2fde38b1461019a57600080fd5b806379cf92d31461010e5780638da5cb5b1461012157600080fd5b806301ffc9a7146100a857806306d5d0b6146100d057806350e9a715146100f1578063715018a614610104575b600080fd5b6100bb6100b6366004610bc6565b6101ad565b60405190151581526020015b60405180910390f35b6100e36100de366004610c98565b610246565b6040519081526020016100c7565b6100e36100ff366004610c1e565b610267565b61010c61038f565b005b61010c61011c366004610ae8565b610421565b60005473ffffffffffffffffffffffffffffffffffffffff165b60405173ffffffffffffffffffffffffffffffffffffffff90911681526020016100c7565b6100e361016e366004610c1e565b6104f0565b61013b7f000000000000000000000000000000000000000000000000000000000000000081565b61010c6101a8366004610ab4565b610546565b60007fffffffff0000000000000000000000000000000000000000000000000000000082167f01ffc9a700000000000000000000000000000000000000000000000000000000148061024057507fffffffff0000000000000000000000000000000000000000000000000000000082167ff3a7928300000000000000000000000000000000000000000000000000000000145b92915050565b6001818154811061025657600080fd5b600091825260209091200154905081565b6000806102a986868080601f01602080910402602001604051908101604052809392919081815260200183838082843760009201919091525061067692505050565b6001549091508111156102bb57506001545b600081116102c857600080fd5b600061032a8460016102da8186610d82565b81548110610311577f4e487b7100000000000000000000000000000000000000000000000000000000600052603260045260246000fd5b90600052602060002001546108a490919063ffffffff16565b905061037961037288888080601f0160208091040260200160405190810160405280939291908181526020018383808284376000920191909152508a92508991506108dd9050565b82906108e6565b905061038481610902565b979650505050505050565b60005473ffffffffffffffffffffffffffffffffffffffff163314610415576040517f08c379a000000000000000000000000000000000000000000000000000000000815260206004820181905260248201527f4f776e61626c653a2063616c6c6572206973206e6f7420746865206f776e657260448201526064015b60405180910390fd5b61041f60006109bd565b565b60005473ffffffffffffffffffffffffffffffffffffffff1633146104a2576040517f08c379a000000000000000000000000000000000000000000000000000000000815260206004820181905260248201527f4f776e61626c653a2063616c6c6572206973206e6f7420746865206f776e6572604482015260640161040c565b80516104b5906001906020840190610a54565b507f73422d94aedd596c2d4d39f27a01033adc390a9054efaf259afefd95ef7331df816040516104e59190610cb0565b60405180910390a150565b600061053d61053886868080601f0160208091040260200160405190810160405280939291908181526020018383808284376000920191909152508892508791506108dd9050565b610902565b95945050505050565b60005473ffffffffffffffffffffffffffffffffffffffff1633146105c7576040517f08c379a000000000000000000000000000000000000000000000000000000000815260206004820181905260248201527f4f776e61626c653a2063616c6c6572206973206e6f7420746865206f776e6572604482015260640161040c565b73ffffffffffffffffffffffffffffffffffffffff811661066a576040517f08c379a000000000000000000000000000000000000000000000000000000000815260206004820152602660248201527f4f776e61626c653a206e6577206f776e657220697320746865207a65726f206160448201527f6464726573730000000000000000000000000000000000000000000000000000606482015260840161040c565b610673816109bd565b50565b8051600090819081905b8082101561089b5760008583815181106106c3577f4e487b7100000000000000000000000000000000000000000000000000000000600052603260045260246000fd5b01602001517fff000000000000000000000000000000000000000000000000000000000000001690507f80000000000000000000000000000000000000000000000000000000000000008110156107265761071f600184610cf4565b9250610888565b7fe0000000000000000000000000000000000000000000000000000000000000007fff000000000000000000000000000000000000000000000000000000000000008216101561077b5761071f600284610cf4565b7ff0000000000000000000000000000000000000000000000000000000000000007fff00000000000000000000000000000000000000000000000000000000000000821610156107d05761071f600384610cf4565b7ff8000000000000000000000000000000000000000000000000000000000000007fff00000000000000000000000000000000000000000000000000000000000000821610156108255761071f600484610cf4565b7ffc000000000000000000000000000000000000000000000000000000000000007fff000000000000000000000000000000000000000000000000000000000000008216101561087a5761071f600584610cf4565b610885600684610cf4565b92505b508261089381610d99565b935050610680565b50909392505050565b6000826108b357506000610240565b60006108bf8385610d45565b9050826108cc8583610d0c565b146108d657600080fd5b9392505050565b60009392505050565b6000806108f38385610cf4565b9050838110156108d657600080fd5b6000807f000000000000000000000000000000000000000000000000000000000000000073ffffffffffffffffffffffffffffffffffffffff166350d25bcd6040518163ffffffff1660e01b815260040160206040518083038186803b15801561096b57600080fd5b505afa15801561097f573d6000803e3d6000fd5b505050506040513d601f19601f820116820180604052508101906109a39190610c06565b90506108d6816109b7856305f5e1006108a4565b90610a32565b6000805473ffffffffffffffffffffffffffffffffffffffff8381167fffffffffffffffffffffffff0000000000000000000000000000000000000000831681178455604051919092169283917f8be0079c531659141344cd1fd0a4f28419497f9722a3daafe3b4186f6b6457e09190a35050565b6000808211610a4057600080fd5b6000610a4c8385610d0c565b949350505050565b828054828255906000526020600020908101928215610a8f579160200282015b82811115610a8f578251825591602001919060010190610a74565b50610a9b929150610a9f565b5090565b5b80821115610a9b5760008155600101610aa0565b600060208284031215610ac5578081fd5b813573ffffffffffffffffffffffffffffffffffffffff811681146108d6578182fd5b60006020808385031215610afa578182fd5b823567ffffffffffffffff80821115610b11578384fd5b818501915085601f830112610b24578384fd5b813581811115610b3657610b36610e01565b8060051b6040517fffffffffffffffffffffffffffffffffffffffffffffffffffffffffffffffe0603f83011681018181108582111715610b7957610b79610e01565b604052828152858101935084860182860187018a1015610b97578788fd5b8795505b83861015610bb9578035855260019590950194938601938601610b9b565b5098975050505050505050565b600060208284031215610bd7578081fd5b81357fffffffff00000000000000000000000000000000000000000000000000000000811681146108d6578182fd5b600060208284031215610c17578081fd5b5051919050565b60008060008060608587031215610c33578283fd5b843567ffffffffffffffff80821115610c4a578485fd5b818701915087601f830112610c5d578485fd5b813581811115610c6b578586fd5b886020828501011115610c7c578586fd5b6020928301999098509187013596604001359550909350505050565b600060208284031215610ca9578081fd5b5035919050565b6020808252825182820181905260009190848201906040850190845b81811015610ce857835183529284019291840191600101610ccc565b50909695505050505050565b60008219821115610d0757610d07610dd2565b500190565b600082610d40577f4e487b710000000000000000000000000000000000000000000000000000000081526012600452602481fd5b500490565b6000817fffffffffffffffffffffffffffffffffffffffffffffffffffffffffffffffff0483118215151615610d7d57610d7d610dd2565b500290565b600082821015610d9457610d94610dd2565b500390565b60007fffffffffffffffffffffffffffffffffffffffffffffffffffffffffffffffff821415610dcb57610dcb610dd2565b5060010190565b7f4e487b7100000000000000000000000000000000000000000000000000000000600052601160045260246000fd5b7f4e487b7100000000000000000000000000000000000000000000000000000000600052604160045260246000fdfea2646970667358221220fe05f7f66b606037812f5581cb18b894f35985ee62a16fc8f10f3db91cc143de64736f6c63430008040033",
  "devdoc": {
    "kind": "dev",
    "methods": {
      "owner()": {
        "details": "Returns the address of the current owner."
      },
      "premium(string,uint256,uint256)": {
        "details": "Returns the pricing premium in wei."
      },
      "price(string,uint256,uint256)": {
        "details": "Returns the price to register or renew a name.",
        "params": {
          "duration": "How long the name is being registered or extended for, in seconds.",
          "expires": "When the name presently expires (0 if this is a new registration).",
          "name": "The name being registered or renewed."
        },
        "returns": {
          "_0": "The price of this renewal or registration, in wei."
        }
      },
      "renounceOwnership()": {
        "details": "Leaves the contract without owner. It will not be possible to call `onlyOwner` functions anymore. Can only be called by the current owner. NOTE: Renouncing ownership will leave the contract without an owner, thereby removing any functionality that is only available to the owner."
      },
      "setPrices(uint256[])": {
        "details": "Sets rent prices.",
        "params": {
          "_rentPrices": "The price array. Each element corresponds to a specific                    name length; names longer than the length of the array                    default to the price of the last element. Values are                    in base price units, equal to one attodollar (1e-18                    dollar) each."
        }
      },
      "transferOwnership(address)": {
        "details": "Transfers ownership of the contract to a new account (`newOwner`). Can only be called by the current owner."
      }
    },
    "version": 1
  },
  "userdoc": {
    "kind": "user",
    "methods": {},
    "version": 1
  },
  "storageLayout": {
    "storage": [
      {
        "astId": 545,
        "contract": "contracts/ethregistrar/StablePriceOracle.sol:StablePriceOracle",
        "label": "_owner",
        "offset": 0,
        "slot": "0",
        "type": "t_address"
      },
      {
        "astId": 11420,
        "contract": "contracts/ethregistrar/StablePriceOracle.sol:StablePriceOracle",
        "label": "rentPrices",
        "offset": 0,
        "slot": "1",
        "type": "t_array(t_uint256)dyn_storage"
      }
    ],
    "types": {
      "t_address": {
        "encoding": "inplace",
        "label": "address",
        "numberOfBytes": "20"
      },
      "t_array(t_uint256)dyn_storage": {
        "base": "t_uint256",
        "encoding": "dynamic_array",
        "label": "uint256[]",
        "numberOfBytes": "32"
      },
      "t_uint256": {
        "encoding": "inplace",
        "label": "uint256",
        "numberOfBytes": "32"
      }
    }
  }
}